{
  "contractName": "UserStorage",
  "abi": [
    {
      "inputs": [
        {
          "internalType": "address",
          "name": "_admin",
          "type": "address"
        },
        {
          "internalType": "address",
          "name": "_manager",
          "type": "address"
        }
      ],
      "stateMutability": "nonpayable",
      "type": "constructor"
    },
    {
      "anonymous": false,
      "inputs": [
        {
          "components": [
            {
              "internalType": "bytes32",
              "name": "positionId",
              "type": "bytes32"
            },
            {
              "internalType": "bytes32",
              "name": "candidateId",
              "type": "bytes32"
            },
            {
              "internalType": "uint256",
              "name": "voteCount",
              "type": "uint256"
            }
          ],
          "indexed": false,
          "internalType": "struct Candidate",
          "name": "candidate",
          "type": "tuple"
        },
        {
          "indexed": false,
          "internalType": "address",
          "name": "candidateAddress",
          "type": "address"
        }
      ],
      "name": "CandidateAdded",
      "type": "event"
    },
    {
      "anonymous": false,
      "inputs": [
        {
          "indexed": false,
          "internalType": "bytes32",
          "name": "candidateId",
          "type": "bytes32"
        }
      ],
      "name": "CandidateDeleted",
      "type": "event"
    },
    {
      "anonymous": false,
      "inputs": [
        {
          "components": [
            {
              "internalType": "bytes32",
              "name": "positionId",
              "type": "bytes32"
            },
            {
              "internalType": "bytes32",
              "name": "candidateId",
              "type": "bytes32"
            },
            {
              "internalType": "uint256",
              "name": "voteCount",
              "type": "uint256"
            }
          ],
          "indexed": false,
          "internalType": "struct Candidate",
          "name": "candidate",
          "type": "tuple"
        },
        {
          "indexed": false,
          "internalType": "address",
          "name": "candidateAddress",
          "type": "address"
        }
      ],
      "name": "CandidateUpdated",
      "type": "event"
    },
    {
      "anonymous": false,
      "inputs": [
        {
          "components": [
            {
              "internalType": "bytes32",
              "name": "memberId",
              "type": "bytes32"
            },
            {
              "internalType": "uint8[]",
              "name": "roles",
              "type": "uint8[]"
            },
            {
              "internalType": "uint8",
              "name": "designation",
              "type": "uint8"
            }
          ],
          "indexed": false,
          "internalType": "struct Member",
          "name": "member",
          "type": "tuple"
        },
        {
          "indexed": false,
          "internalType": "address",
          "name": "memberAddress",
          "type": "address"
        }
      ],
      "name": "MemberAdded",
      "type": "event"
    },
    {
      "anonymous": false,
      "inputs": [
        {
          "indexed": false,
          "internalType": "bytes32",
          "name": "memberId",
          "type": "bytes32"
        }
      ],
      "name": "MemberDeleted",
      "type": "event"
    },
    {
      "anonymous": false,
      "inputs": [
        {
          "components": [
            {
              "internalType": "bytes32",
              "name": "memberId",
              "type": "bytes32"
            },
            {
              "internalType": "uint8[]",
              "name": "roles",
              "type": "uint8[]"
            },
            {
              "internalType": "uint8",
              "name": "designation",
              "type": "uint8"
            }
          ],
          "indexed": false,
          "internalType": "struct Member",
          "name": "member",
          "type": "tuple"
        },
        {
          "indexed": false,
          "internalType": "address",
          "name": "memberAddress",
          "type": "address"
        }
      ],
      "name": "MemberUpdated",
      "type": "event"
    },
    {
      "anonymous": false,
      "inputs": [
        {
          "indexed": false,
          "internalType": "bytes32",
          "name": "userId",
          "type": "bytes32"
        },
        {
          "indexed": false,
          "internalType": "address",
          "name": "userAddress",
          "type": "address"
        }
      ],
      "name": "UserAdded",
      "type": "event"
    },
    {
      "anonymous": false,
      "inputs": [
        {
          "indexed": false,
          "internalType": "bytes32",
          "name": "userId",
          "type": "bytes32"
        },
        {
          "indexed": false,
          "internalType": "address",
          "name": "userAddress",
          "type": "address"
        }
      ],
      "name": "UserDeleted",
      "type": "event"
    },
    {
      "anonymous": false,
      "inputs": [
        {
          "indexed": false,
          "internalType": "bytes32",
          "name": "userId",
          "type": "bytes32"
        },
        {
          "indexed": false,
          "internalType": "address",
          "name": "userAddress",
          "type": "address"
        }
      ],
      "name": "UserUpdated",
      "type": "event"
    },
    {
      "anonymous": false,
      "inputs": [
        {
          "indexed": false,
          "internalType": "bytes32",
          "name": "voterId",
          "type": "bytes32"
        },
        {
          "indexed": false,
          "internalType": "bytes32",
          "name": "positionId",
          "type": "bytes32"
        }
      ],
      "name": "VoteCast",
      "type": "event"
    },
    {
      "anonymous": false,
      "inputs": [
        {
          "indexed": false,
          "internalType": "bytes32",
          "name": "voterId",
          "type": "bytes32"
        },
        {
          "indexed": false,
          "internalType": "address",
          "name": "voterAddress",
          "type": "address"
        }
      ],
      "name": "VoterAdded",
      "type": "event"
    },
    {
      "anonymous": false,
      "inputs": [
        {
          "indexed": false,
          "internalType": "bytes32",
          "name": "voterId",
          "type": "bytes32"
        }
      ],
      "name": "VoterDeleted",
      "type": "event"
    },
    {
      "anonymous": false,
      "inputs": [
        {
          "components": [
            {
              "internalType": "bytes32",
              "name": "universityId",
              "type": "bytes32"
            },
            {
              "internalType": "bytes32",
              "name": "voterId",
              "type": "bytes32"
            },
            {
              "internalType": "bytes32[]",
              "name": "positionVote",
              "type": "bytes32[]"
            }
          ],
          "indexed": false,
          "internalType": "struct Voter",
          "name": "voter",
          "type": "tuple"
        },
        {
          "indexed": false,
          "internalType": "address",
          "name": "voterAddress",
          "type": "address"
        }
      ],
      "name": "VoterUpdated",
      "type": "event"
    },
    {
      "inputs": [
        {
          "internalType": "bytes32",
          "name": "",
          "type": "bytes32"
        }
      ],
      "name": "candidateAddressMap",
      "outputs": [
        {
          "internalType": "address",
          "name": "",
          "type": "address"
        }
      ],
      "stateMutability": "view",
      "type": "function",
      "constant": true
    },
    {
      "inputs": [
        {
          "internalType": "bytes32",
          "name": "",
          "type": "bytes32"
        }
      ],
      "name": "candidateMap",
      "outputs": [
        {
          "internalType": "bytes32",
          "name": "positionId",
          "type": "bytes32"
        },
        {
          "internalType": "bytes32",
          "name": "candidateId",
          "type": "bytes32"
        },
        {
          "internalType": "uint256",
          "name": "voteCount",
          "type": "uint256"
        }
      ],
      "stateMutability": "view",
      "type": "function",
      "constant": true
    },
    {
      "inputs": [
        {
          "internalType": "address",
          "name": "",
          "type": "address"
        }
      ],
      "name": "candidateReverseMap",
      "outputs": [
        {
          "internalType": "bytes32",
          "name": "",
          "type": "bytes32"
        }
      ],
      "stateMutability": "view",
      "type": "function",
      "constant": true
    },
    {
      "inputs": [],
      "name": "designations",
      "outputs": [
        {
          "internalType": "uint256",
          "name": "counter",
          "type": "uint256"
        }
      ],
      "stateMutability": "view",
      "type": "function",
      "constant": true
    },
    {
      "inputs": [],
      "name": "getAdmin",
      "outputs": [
        {
          "internalType": "address",
          "name": "",
          "type": "address"
        }
      ],
      "stateMutability": "view",
      "type": "function",
      "constant": true
    },
    {
      "inputs": [],
      "name": "getManager",
      "outputs": [
        {
          "internalType": "address",
          "name": "",
          "type": "address"
        }
      ],
      "stateMutability": "view",
      "type": "function",
      "constant": true
    },
    {
      "inputs": [],
      "name": "getOwner",
      "outputs": [
        {
          "internalType": "address",
          "name": "",
          "type": "address"
        }
      ],
      "stateMutability": "view",
      "type": "function",
      "constant": true
    },
    {
      "inputs": [
        {
          "internalType": "bytes32",
          "name": "",
          "type": "bytes32"
        }
      ],
      "name": "memberAddressMap",
      "outputs": [
        {
          "internalType": "address",
          "name": "",
          "type": "address"
        }
      ],
      "stateMutability": "view",
      "type": "function",
      "constant": true
    },
    {
      "inputs": [
        {
          "internalType": "bytes32",
          "name": "",
          "type": "bytes32"
        }
      ],
      "name": "memberMap",
      "outputs": [
        {
          "internalType": "bytes32",
          "name": "memberId",
          "type": "bytes32"
        },
        {
          "internalType": "uint8",
          "name": "designation",
          "type": "uint8"
        }
      ],
      "stateMutability": "view",
      "type": "function",
      "constant": true
    },
    {
      "inputs": [
        {
          "internalType": "address",
          "name": "",
          "type": "address"
        }
      ],
      "name": "memberReverseMap",
      "outputs": [
        {
          "internalType": "bytes32",
          "name": "",
          "type": "bytes32"
        }
      ],
      "stateMutability": "view",
      "type": "function",
      "constant": true
    },
    {
      "inputs": [],
      "name": "positions",
      "outputs": [
        {
          "internalType": "uint256",
          "name": "counter",
          "type": "uint256"
        }
      ],
      "stateMutability": "view",
      "type": "function",
      "constant": true
    },
    {
      "inputs": [],
      "name": "roles",
      "outputs": [
        {
          "internalType": "uint256",
          "name": "counter",
          "type": "uint256"
        }
      ],
      "stateMutability": "view",
      "type": "function",
      "constant": true
    },
    {
      "inputs": [
        {
          "internalType": "address",
          "name": "_admin",
          "type": "address"
        }
      ],
      "name": "setAdmin",
      "outputs": [],
      "stateMutability": "nonpayable",
      "type": "function"
    },
    {
      "inputs": [
        {
          "internalType": "address",
          "name": "_manager",
          "type": "address"
        }
      ],
      "name": "setManager",
      "outputs": [],
      "stateMutability": "nonpayable",
      "type": "function"
    },
    {
      "inputs": [
        {
          "internalType": "address",
          "name": "_owner",
          "type": "address"
        }
      ],
      "name": "setOwner",
      "outputs": [],
      "stateMutability": "nonpayable",
      "type": "function"
    },
    {
      "inputs": [
        {
          "internalType": "bytes32",
          "name": "",
          "type": "bytes32"
        }
      ],
      "name": "userMap",
      "outputs": [
        {
          "internalType": "address",
          "name": "",
          "type": "address"
        }
      ],
      "stateMutability": "view",
      "type": "function",
      "constant": true
    },
    {
      "inputs": [
        {
          "internalType": "address",
          "name": "",
          "type": "address"
        }
      ],
      "name": "userReverseMap",
      "outputs": [
        {
          "internalType": "bytes32",
          "name": "",
          "type": "bytes32"
        }
      ],
      "stateMutability": "view",
      "type": "function",
      "constant": true
    },
    {
      "inputs": [
        {
          "internalType": "bytes32",
          "name": "",
          "type": "bytes32"
        }
      ],
      "name": "voterAddressMap",
      "outputs": [
        {
          "internalType": "address",
          "name": "",
          "type": "address"
        }
      ],
      "stateMutability": "view",
      "type": "function",
      "constant": true
    },
    {
      "inputs": [
        {
          "internalType": "bytes32",
          "name": "",
          "type": "bytes32"
        }
      ],
      "name": "voterMap",
      "outputs": [
        {
          "internalType": "bytes32",
          "name": "universityId",
          "type": "bytes32"
        },
        {
          "internalType": "bytes32",
          "name": "voterId",
          "type": "bytes32"
        }
      ],
      "stateMutability": "view",
      "type": "function",
      "constant": true
    },
    {
      "inputs": [
        {
          "internalType": "address",
          "name": "",
          "type": "address"
        }
      ],
      "name": "voterReverseMap",
      "outputs": [
        {
          "internalType": "bytes32",
          "name": "",
          "type": "bytes32"
        }
      ],
      "stateMutability": "view",
      "type": "function",
      "constant": true
    },
    {
      "inputs": [
        {
          "internalType": "string",
          "name": "_designation",
          "type": "string"
        }
      ],
      "name": "addDesignation",
      "outputs": [],
      "stateMutability": "nonpayable",
      "type": "function"
    },
    {
      "inputs": [
        {
          "internalType": "string",
          "name": "_role",
          "type": "string"
        }
      ],
      "name": "addRole",
      "outputs": [],
      "stateMutability": "nonpayable",
      "type": "function"
    },
    {
      "inputs": [
        {
          "internalType": "string",
          "name": "_position",
          "type": "string"
        }
      ],
      "name": "addPosition",
      "outputs": [],
      "stateMutability": "nonpayable",
      "type": "function"
    },
    {
      "inputs": [
        {
          "internalType": "string",
          "name": "_designation",
          "type": "string"
        }
      ],
      "name": "getDesignationValue",
      "outputs": [
        {
          "internalType": "uint256",
          "name": "",
          "type": "uint256"
        }
      ],
      "stateMutability": "view",
      "type": "function",
      "constant": true
    },
    {
      "inputs": [
        {
          "internalType": "string",
          "name": "_role",
          "type": "string"
        }
      ],
      "name": "getRoleValue",
      "outputs": [
        {
          "internalType": "uint256",
          "name": "",
          "type": "uint256"
        }
      ],
      "stateMutability": "view",
      "type": "function",
      "constant": true
    },
    {
      "inputs": [
        {
          "internalType": "string",
          "name": "_position",
          "type": "string"
        }
      ],
      "name": "getPositionValue",
      "outputs": [
        {
          "internalType": "uint256",
          "name": "",
          "type": "uint256"
        }
      ],
      "stateMutability": "view",
      "type": "function",
      "constant": true
    },
    {
      "inputs": [
        {
          "internalType": "bytes32",
          "name": "userId",
          "type": "bytes32"
        },
        {
          "internalType": "address",
          "name": "userAddress",
          "type": "address"
        }
      ],
      "name": "addUser",
      "outputs": [],
      "stateMutability": "nonpayable",
      "type": "function"
    },
    {
      "inputs": [
        {
          "internalType": "bytes32",
          "name": "_userId",
          "type": "bytes32"
        },
        {
          "internalType": "address",
          "name": "_userAddress",
          "type": "address"
        }
      ],
      "name": "updateUser",
      "outputs": [],
      "stateMutability": "nonpayable",
      "type": "function"
    },
    {
      "inputs": [
        {
          "internalType": "bytes32",
          "name": "_userId",
          "type": "bytes32"
        }
      ],
      "name": "deleteUser",
      "outputs": [],
      "stateMutability": "nonpayable",
      "type": "function"
    },
    {
      "inputs": [
        {
          "internalType": "address",
          "name": "userAddress",
          "type": "address"
        }
      ],
      "name": "getUserId",
      "outputs": [
        {
          "internalType": "bytes32",
          "name": "",
          "type": "bytes32"
        }
      ],
      "stateMutability": "view",
      "type": "function",
      "constant": true
    },
    {
      "inputs": [
        {
          "internalType": "bytes32",
          "name": "userId",
          "type": "bytes32"
        }
      ],
      "name": "getUserAddress",
      "outputs": [
        {
          "internalType": "address",
          "name": "",
          "type": "address"
        }
      ],
      "stateMutability": "view",
      "type": "function",
      "constant": true
    },
    {
      "inputs": [
        {
          "components": [
            {
              "internalType": "bytes32",
              "name": "universityId",
              "type": "bytes32"
            },
            {
              "internalType": "bytes32",
              "name": "voterId",
              "type": "bytes32"
            },
            {
              "internalType": "bytes32[]",
              "name": "positionVote",
              "type": "bytes32[]"
            }
          ],
          "internalType": "struct Voter",
          "name": "_voter",
          "type": "tuple"
        }
      ],
      "name": "addVoter",
      "outputs": [],
      "stateMutability": "nonpayable",
      "type": "function"
    },
    {
      "inputs": [
        {
          "components": [
            {
              "internalType": "bytes32",
              "name": "universityId",
              "type": "bytes32"
            },
            {
              "internalType": "bytes32",
              "name": "voterId",
              "type": "bytes32"
            },
            {
              "internalType": "bytes32[]",
              "name": "positionVote",
              "type": "bytes32[]"
            }
          ],
          "internalType": "struct Voter",
          "name": "_voter",
          "type": "tuple"
        }
      ],
      "name": "updateVoter",
      "outputs": [],
      "stateMutability": "nonpayable",
      "type": "function"
    },
    {
      "inputs": [
        {
          "internalType": "bytes32",
          "name": "_voterId",
          "type": "bytes32"
        }
      ],
      "name": "deleteVoter",
      "outputs": [],
      "stateMutability": "nonpayable",
      "type": "function"
    },
    {
      "inputs": [
        {
          "internalType": "address",
          "name": "_voterAddress",
          "type": "address"
        }
      ],
      "name": "getVoterId",
      "outputs": [
        {
          "internalType": "bytes32",
          "name": "",
          "type": "bytes32"
        }
      ],
      "stateMutability": "view",
      "type": "function",
      "constant": true
    },
    {
      "inputs": [
        {
          "internalType": "bytes32",
          "name": "_voterId",
          "type": "bytes32"
        }
      ],
      "name": "getVoterAddress",
      "outputs": [
        {
          "internalType": "address",
          "name": "",
          "type": "address"
        }
      ],
      "stateMutability": "view",
      "type": "function",
      "constant": true
    },
    {
      "inputs": [
        {
          "internalType": "bytes32",
          "name": "_voterId",
          "type": "bytes32"
        }
      ],
      "name": "getVoterPositionStatus",
      "outputs": [
        {
          "internalType": "bytes32[]",
          "name": "",
          "type": "bytes32[]"
        }
      ],
      "stateMutability": "view",
      "type": "function",
      "constant": true
    },
    {
      "inputs": [
        {
          "internalType": "bytes32",
          "name": "_voterId",
          "type": "bytes32"
        }
      ],
      "name": "getVoterDetail",
      "outputs": [
        {
          "components": [
            {
              "internalType": "bytes32",
              "name": "universityId",
              "type": "bytes32"
            },
            {
              "internalType": "bytes32",
              "name": "voterId",
              "type": "bytes32"
            },
            {
              "internalType": "bytes32[]",
              "name": "positionVote",
              "type": "bytes32[]"
            }
          ],
          "internalType": "struct Voter",
          "name": "",
          "type": "tuple"
        }
      ],
      "stateMutability": "view",
      "type": "function",
      "constant": true
    },
    {
      "inputs": [
        {
          "internalType": "address",
          "name": "_voterAddress",
          "type": "address"
        }
      ],
      "name": "getVoterDetailByAddress",
      "outputs": [
        {
          "components": [
            {
              "internalType": "bytes32",
              "name": "universityId",
              "type": "bytes32"
            },
            {
              "internalType": "bytes32",
              "name": "voterId",
              "type": "bytes32"
            },
            {
              "internalType": "bytes32[]",
              "name": "positionVote",
              "type": "bytes32[]"
            }
          ],
          "internalType": "struct Voter",
          "name": "",
          "type": "tuple"
        }
      ],
      "stateMutability": "view",
      "type": "function",
      "constant": true
    },
    {
      "inputs": [
        {
          "components": [
            {
              "internalType": "bytes32",
              "name": "positionId",
              "type": "bytes32"
            },
            {
              "internalType": "bytes32",
              "name": "candidateId",
              "type": "bytes32"
            },
            {
              "internalType": "uint256",
              "name": "voteCount",
              "type": "uint256"
            }
          ],
          "internalType": "struct Candidate",
          "name": "_candidate",
          "type": "tuple"
        }
      ],
      "name": "addCandidate",
      "outputs": [],
      "stateMutability": "nonpayable",
      "type": "function"
    },
    {
      "inputs": [
        {
          "components": [
            {
              "internalType": "bytes32",
              "name": "positionId",
              "type": "bytes32"
            },
            {
              "internalType": "bytes32",
              "name": "candidateId",
              "type": "bytes32"
            },
            {
              "internalType": "uint256",
              "name": "voteCount",
              "type": "uint256"
            }
          ],
          "internalType": "struct Candidate",
          "name": "_candidate",
          "type": "tuple"
        }
      ],
      "name": "updateCandidate",
      "outputs": [],
      "stateMutability": "nonpayable",
      "type": "function"
    },
    {
      "inputs": [
        {
          "internalType": "bytes32",
          "name": "_candidateId",
          "type": "bytes32"
        }
      ],
      "name": "deleteCandidate",
      "outputs": [],
      "stateMutability": "nonpayable",
      "type": "function"
    },
    {
      "inputs": [
        {
          "internalType": "address",
          "name": "_candidateAddress",
          "type": "address"
        }
      ],
      "name": "getCandidateId",
      "outputs": [
        {
          "internalType": "bytes32",
          "name": "",
          "type": "bytes32"
        }
      ],
      "stateMutability": "view",
      "type": "function",
      "constant": true
    },
    {
      "inputs": [
        {
          "internalType": "bytes32",
          "name": "_candidateId",
          "type": "bytes32"
        }
      ],
      "name": "getCandidateAddress",
      "outputs": [
        {
          "internalType": "address",
          "name": "",
          "type": "address"
        }
      ],
      "stateMutability": "view",
      "type": "function",
      "constant": true
    },
    {
      "inputs": [
        {
          "internalType": "bytes32",
          "name": "_candidateId",
          "type": "bytes32"
        }
      ],
      "name": "getCandidateDetail",
      "outputs": [
        {
          "components": [
            {
              "internalType": "bytes32",
              "name": "positionId",
              "type": "bytes32"
            },
            {
              "internalType": "bytes32",
              "name": "candidateId",
              "type": "bytes32"
            },
            {
              "internalType": "uint256",
              "name": "voteCount",
              "type": "uint256"
            }
          ],
          "internalType": "struct Candidate",
          "name": "",
          "type": "tuple"
        }
      ],
      "stateMutability": "view",
      "type": "function",
      "constant": true
    },
    {
      "inputs": [
        {
          "internalType": "address",
          "name": "_candidateAddress",
          "type": "address"
        }
      ],
      "name": "getCandidateByAddress",
      "outputs": [
        {
          "components": [
            {
              "internalType": "bytes32",
              "name": "positionId",
              "type": "bytes32"
            },
            {
              "internalType": "bytes32",
              "name": "candidateId",
              "type": "bytes32"
            },
            {
              "internalType": "uint256",
              "name": "voteCount",
              "type": "uint256"
            }
          ],
          "internalType": "struct Candidate",
          "name": "",
          "type": "tuple"
        }
      ],
      "stateMutability": "view",
      "type": "function",
      "constant": true
    },
    {
      "inputs": [
        {
          "internalType": "bytes32",
          "name": "_candidateId",
          "type": "bytes32"
        }
      ],
      "name": "getCandidateVotes",
      "outputs": [
        {
          "internalType": "uint256",
          "name": "",
          "type": "uint256"
        }
      ],
      "stateMutability": "view",
      "type": "function",
      "constant": true
    },
    {
      "inputs": [
        {
          "internalType": "address",
          "name": "_candidateAddress",
          "type": "address"
        }
      ],
      "name": "getCandidateVotesByAddress",
      "outputs": [
        {
          "internalType": "uint256",
          "name": "",
          "type": "uint256"
        }
      ],
      "stateMutability": "view",
      "type": "function",
      "constant": true
    },
    {
      "inputs": [
        {
          "internalType": "address",
          "name": "_candidateAddress",
          "type": "address"
        }
      ],
      "name": "getCandidatePositionByAddress",
      "outputs": [
        {
          "internalType": "bytes32",
          "name": "",
          "type": "bytes32"
        }
      ],
      "stateMutability": "view",
      "type": "function",
      "constant": true
    },
    {
      "inputs": [
        {
          "internalType": "bytes32",
          "name": "_candidateId",
          "type": "bytes32"
        }
      ],
      "name": "getCandidatePosition",
      "outputs": [
        {
          "internalType": "bytes32",
          "name": "",
          "type": "bytes32"
        }
      ],
      "stateMutability": "view",
      "type": "function",
      "constant": true
    },
    {
      "inputs": [
        {
          "components": [
            {
              "internalType": "bytes32",
              "name": "memberId",
              "type": "bytes32"
            },
            {
              "internalType": "uint8[]",
              "name": "roles",
              "type": "uint8[]"
            },
            {
              "internalType": "uint8",
              "name": "designation",
              "type": "uint8"
            }
          ],
          "internalType": "struct Member",
          "name": "_member",
          "type": "tuple"
        }
      ],
      "name": "addMember",
      "outputs": [],
      "stateMutability": "nonpayable",
      "type": "function"
    },
    {
      "inputs": [
        {
          "components": [
            {
              "internalType": "bytes32",
              "name": "memberId",
              "type": "bytes32"
            },
            {
              "internalType": "uint8[]",
              "name": "roles",
              "type": "uint8[]"
            },
            {
              "internalType": "uint8",
              "name": "designation",
              "type": "uint8"
            }
          ],
          "internalType": "struct Member",
          "name": "_member",
          "type": "tuple"
        }
      ],
      "name": "updateMember",
      "outputs": [],
      "stateMutability": "nonpayable",
      "type": "function"
    },
    {
      "inputs": [
        {
          "internalType": "bytes32",
          "name": "_memberId",
          "type": "bytes32"
        }
      ],
      "name": "deleteMember",
      "outputs": [],
      "stateMutability": "nonpayable",
      "type": "function"
    },
    {
      "inputs": [
        {
          "internalType": "address",
          "name": "_memberAddress",
          "type": "address"
        }
      ],
      "name": "getMemberId",
      "outputs": [
        {
          "internalType": "bytes32",
          "name": "",
          "type": "bytes32"
        }
      ],
      "stateMutability": "view",
      "type": "function",
      "constant": true
    },
    {
      "inputs": [
        {
          "internalType": "bytes32",
          "name": "_memberId",
          "type": "bytes32"
        }
      ],
      "name": "getMemberAddress",
      "outputs": [
        {
          "internalType": "address",
          "name": "",
          "type": "address"
        }
      ],
      "stateMutability": "view",
      "type": "function",
      "constant": true
    },
    {
      "inputs": [
        {
          "internalType": "bytes32",
          "name": "_memberId",
          "type": "bytes32"
        }
      ],
      "name": "getMemberDetail",
      "outputs": [
        {
          "components": [
            {
              "internalType": "bytes32",
              "name": "memberId",
              "type": "bytes32"
            },
            {
              "internalType": "uint8[]",
              "name": "roles",
              "type": "uint8[]"
            },
            {
              "internalType": "uint8",
              "name": "designation",
              "type": "uint8"
            }
          ],
          "internalType": "struct Member",
          "name": "",
          "type": "tuple"
        }
      ],
      "stateMutability": "view",
      "type": "function",
      "constant": true
    },
    {
      "inputs": [
        {
          "internalType": "bytes32",
          "name": "_memberId",
          "type": "bytes32"
        }
      ],
      "name": "getMemberRoles",
      "outputs": [
        {
          "internalType": "uint8[]",
          "name": "",
          "type": "uint8[]"
        }
      ],
      "stateMutability": "view",
      "type": "function",
      "constant": true
    },
    {
      "inputs": [
        {
          "internalType": "address",
          "name": "_memberAddress",
          "type": "address"
        }
      ],
      "name": "getMemberByAddress",
      "outputs": [
        {
          "components": [
            {
              "internalType": "bytes32",
              "name": "memberId",
              "type": "bytes32"
            },
            {
              "internalType": "uint8[]",
              "name": "roles",
              "type": "uint8[]"
            },
            {
              "internalType": "uint8",
              "name": "designation",
              "type": "uint8"
            }
          ],
          "internalType": "struct Member",
          "name": "",
          "type": "tuple"
        }
      ],
      "stateMutability": "view",
      "type": "function",
      "constant": true
    },
    {
      "inputs": [
        {
          "internalType": "address",
          "name": "_memberAddress",
          "type": "address"
        }
      ],
      "name": "getMemberRolesByAddress",
      "outputs": [
        {
          "internalType": "uint8[]",
          "name": "",
          "type": "uint8[]"
        }
      ],
      "stateMutability": "view",
      "type": "function",
      "constant": true
    },
    {
      "inputs": [
        {
          "internalType": "bytes32",
          "name": "_positionId",
          "type": "bytes32"
        },
        {
          "internalType": "bytes32",
          "name": "_candidateId",
          "type": "bytes32"
        }
      ],
      "name": "voteCast",
      "outputs": [],
      "stateMutability": "nonpayable",
      "type": "function"
    }
  ],
  "bytecode": "0x60806040523480156200001157600080fd5b5060405162002b2338038062002b2383398101604081905262000034916200008e565b6000805433600160a060020a031991821617909155600180548216600160a060020a039485161790556002805490911691909216179055620000c6565b8051600160a060020a03811681146200008957600080fd5b919050565b60008060408385031215620000a257600080fd5b620000ad8362000071565b9150620000bd6020840162000071565b90509250929050565b612a4d80620000d66000396000f3fe608060405234801561001057600080fd5b50600436106103c1576000357c010000000000000000000000000000000000000000000000000000000090048063704b6c0211610206578063ad25e8291161012c578063c269014b116100ca578063d98fc01d11610099578063d98fc01d14610aa3578063de3b042314610ac3578063e6fae74f14610aec578063fb9b4cba1461060757600080fd5b8063c269014b14610a43578063c9179b4714610a6c578063d0ebdbe714610a7f578063d500958414610a9257600080fd5b8063b0cf30dd11610106578063b0cf30dd14610a00578063b0d72b3914610a13578063ba5b798214610a26578063be1b97a214610a3057600080fd5b8063ad25e82914610935578063ad923ca6146109a3578063ae00a809146109ed57600080fd5b80638906842f116101a45780639cfb56d8116101735780639cfb56d8146108c3578063a656234f146108d6578063aa9c5426146108f9578063ab25159e1461090c57600080fd5b80638906842f14610875578063893d20e8146108955780638afb84b5146108a65780639400e99d146108b957600080fd5b80638017cec4116101e05780638017cec41461080f57806380de31d21461082f57806382bb2a561461084f578063866248311461086257600080fd5b8063704b6c02146107c05780637110068c146107d35780637f67c5c4146107fc57600080fd5b80633dd9899f116102eb5780634dbc4655116102895780635e5d4320116102585780635e5d43201461076957806361a78d6e1461077c578063667ddb8c1461078f5780636e9960c3146107af57600080fd5b80634dbc4655146106db5780635925b349146106ee5780635abe0afd146107175780635b248a821461074057600080fd5b806342b9a49e116102c557806342b9a49e1461062d57806346d9593814610669578063472bb432146106925780634a4e8884146106b257600080fd5b80633dd9899f146105e75780633e96e8681461060757806341fde2571461061a57600080fd5b8063231866001161036357806332c755041161033257806332c7550414610574578063331d938c1461058757806334ffe1c9146105a7578063392f5f64146105dd57600080fd5b806323186600146104be5780632b956ff7146104f75780632cf14f9f146105205780632f0c163c1461056157600080fd5b806313af40351161039f57806313af40351461044f57806314f2f3bd146104625780631f0d26991461048b578063227db835146104ab57600080fd5b80630ee8272c146103c65780630efc61c5146103f95780631308981f1461040e575b600080fd5b6103e66103d436600461222f565b60009081526011602052604090205490565b6040519081526020015b60405180910390f35b61040c61040736600461222f565b610aff565b005b61043761041c36600461222f565b600f60205260009081526040902054600160a060020a031681565b604051600160a060020a0390911681526020016103f0565b61040c61045d366004612264565b610c17565b6103e6610470366004612264565b600160a060020a031660009081526013602052604090205490565b6103e6610499366004612264565b600d6020526000908152604090205481565b61040c6104b936600461231d565b610cb6565b6103e66104cc366004612264565b600160a060020a03166000908152601360209081526040808320548352601190915290206002015490565b6103e6610505366004612264565b600160a060020a03166000908152600d602052604090205490565b61054a61052e36600461222f565b6014602052600090815260409020805460029091015460ff1682565b6040805192835260ff9091166020830152016103f0565b61040c61056f36600461231d565b610d0f565b61040c610582366004612407565b610e3c565b61059a61059536600461222f565b610ef4565b6040516103f091906124e7565b6103e66105b5366004612264565b600160a060020a03166000908152601360209081526040808320548352601190915290205490565b6008546103e69081565b6105fa6105f5366004612264565b610f3f565b6040516103f09190612572565b61040c610615366004612585565b611015565b61040c61062836600461261a565b611023565b61065461063b36600461222f565b600e602052600090815260409020805460019091015482565b604080519283526020830191909152016103f0565b61043761067736600461222f565b600090815260126020526040902054600160a060020a031690565b6106a56106a036600461222f565b61115f565b6040516103f091906126b1565b6104376106c036600461222f565b6000908152600c6020526040902054600160a060020a031690565b61040c6106e93660046126c4565b6111c4565b6104376106fc36600461222f565b6000908152600f6020526040902054600160a060020a031690565b6103e6610725366004612264565b600160a060020a031660009081526010602052604090205490565b61043761074e36600461222f565b600090815260156020526040902054600160a060020a031690565b61040c61077736600461222f565b61129a565b6103e661078a366004612585565b61136d565b6107a261079d36600461222f565b611380565b6040516103f09190612721565b600154600160a060020a0316610437565b61040c6107ce366004612264565b611419565b6104376107e136600461222f565b600c60205260009081526040902054600160a060020a031681565b61040c61080a366004612585565b611468565b61082261081d36600461222f565b611473565b6040516103f09190612734565b6103e661083d366004612264565b60166020526000908152604090205481565b61040c61085d36600461222f565b6114f4565b61040c61087036600461277b565b6115d7565b6103e6610883366004612264565b60106020526000908152604090205481565b600054600160a060020a0316610437565b6108226108b4366004612264565b611728565b6005546103e69081565b61040c6108d136600461261a565b6117c1565b6103e66108e436600461222f565b60009081526011602052604090206002015490565b61040c6109073660046126c4565b6118a1565b61043761091a36600461222f565b601260205260009081526040902054600160a060020a031681565b61059a610943366004612264565b604080516060808201835260008083526020808401829052928401819052600160a060020a039490941684526013825282842054845260118252928290208251938401835280548452600181015491840191909152600201549082015290565b6109d26109b136600461222f565b60116020526000908152604090208054600182015460029092015490919083565b604080519384526020840192909252908201526060016103f0565b6103e66109fb366004612585565b61199e565b6105fa610a0e36600461222f565b6119ab565b6103e6610a21366004612585565b611a6c565b600b546103e69081565b61040c610a3e36600461222f565b611a79565b6103e6610a51366004612264565b600160a060020a031660009081526016602052604090205490565b61040c610a7a366004612407565b611b81565b61040c610a8d366004612264565b611c90565b600254600160a060020a0316610437565b6103e6610ab1366004612264565b60136020526000908152604090205481565b610437610ad136600461222f565b601560205260009081526040902054600160a060020a031681565b6107a2610afa366004612264565b611d4a565b600081815260156020526040902054600160a060020a0316610b6b5760405160e560020a62461bcd02815260206004820152601060248201527f6d656d626572206e6f742065786973740000000000000000000000000000000060448201526064015b60405180910390fd5b60008181526015602090815260408083205460149092528220828155600160a060020a0390911691610ba060018301826120ea565b50600201805460ff1916905560008281526015602090815260408083208054600160a060020a0319169055600160a060020a0384168352601682528083209290925590518381527f5851b20f291875eae7053af90d1a9a4ef01b5e55e3d5220faa4c3e53b81e0f9391015b60405180910390a15050565b600054600160a060020a03163314610c445760405160e560020a62461bcd028152600401610b629061279d565b33610c945760405160e560020a62461bcd02815260206004820152601f60248201527f4f776e6572206e6f7420736574207468652066697273742061646472657373006044820152606401610b62565b60008054600160a060020a031916600160a060020a0392909216919091179055565b6020808201516000908152600c9091526040902054600160a060020a0316610cde8282611df8565b7fe85449d3127bc65bcb19092fda97959db63efd6f4b8a7d210322f4d07a27c6f58282604051610c0b9291906127fa565b6020808201516000908152600c9091526040902054600160a060020a031680610d7d5760405160e560020a62461bcd02815260206004820152601d60248201527f43616e646964617465206163636f756e74206e6f7420637265617465640000006044820152606401610b62565b6020808301516000908152600f9091526040902054600160a060020a031615610deb5760405160e560020a62461bcd02815260206004820152601360248201527f566f74657220616c7265616479206578697374000000000000000000000000006044820152606401610b62565b610df58282611df8565b7ff2c5d250e7f5e3d0a00af1ab95adfe8fa8da11ad3c6bd195b6cd09688ba317bb826020015182604051610c0b929190918252600160a060020a0316602082015260400190565b80516000908152600c602090815260408083205484518452601590925290912054600160a060020a039182169116610eb95760405160e560020a62461bcd02815260206004820152601060248201527f4d656d626572206e6f74206578697374000000000000000000000000000000006044820152606401610b62565b610ec38282611e8a565b7ff199fecc4c64b7b46aed443c57bb5b37f1b3a3d3057f0d876b4d2ad229e7f6bc8282604051610c0b929190612825565b60408051606080820183526000808352602080840182905292840181905293845260118252928290208251938401835280548452600181015491840191909152600201549082015290565b604080516060808201835260008083526020808401839052838501829052600160a060020a038616825260168152848220548083526014825291859020855193840186528054845260018101805487518185028101850190985280885295969395919385840193909290830182828015610ff657602002820191906000526020600020906000905b825461010083900a900460ff16815260206001928301818104948501949093039092029101808411610fc75790505b50505091835250506002919091015460ff166020909101529392505050565b611020600682611f16565b50565b6020808201516000908152600c9091526040902054600160a060020a0316806110915760405160e560020a62461bcd02815260206004820152601d60248201527f43616e646964617465206163636f756e74206e6f7420637265617465640000006044820152606401610b62565b602080830151600090815260129091526040902054600160a060020a0316156110ff5760405160e560020a62461bcd02815260206004820152601760248201527f63616e64696461746520616c72656164792065786973740000000000000000006044820152606401610b62565b6111098282611fe8565b6040805183518152602080850151908201528184015191810191909152600160a060020a03821660608201527f99be277ddd82c0c30040975399e7d4ef8d04fbd005cae5d17efa39d257581ba390608001610c0b565b6000818152600e60209081526040918290206002018054835181840281018401909452808452606093928301828280156111b857602002820191906000526020600020905b8154815260200190600101908083116111a4575b50505050509050919050565b6000828152600c6020526040902054600160a060020a031661122b5760405160e560020a62461bcd02815260206004820152601360248201527f7573657220646f6573206e6f74206578697374000000000000000000000000006044820152606401610b62565b6000828152600c602090815260408083208054600160a060020a031916600160a060020a038616908117909155808452600d8352928190208590558051858152918201929092527f7da09e771d6226b031a8d2ee29c264291211b678ba58639ed49a64542e0e54739101610c0b565b6000818152600c6020526040902054600160a060020a0316806113025760405160e560020a62461bcd02815260206004820152601360248201527f7573657220646f6573206e6f74206578697374000000000000000000000000006044820152606401610b62565b6000828152600c602090815260408083208054600160a060020a0319169055600160a060020a038416808452600d8352818420939093558051858152918201929092527f0a37643b685c638a77bcf0042f7acde81a8fec9de257712c5e030245faa2287b9101610c0b565b600061137a60068361204c565b92915050565b604080516060808201835260008083526020808401829052838501839052858252600e8152908490208451928301855280548352600181015483830152600281018054865181850281018501885281815295969495929486019383018282801561140957602002820191906000526020600020905b8154815260200190600101908083116113f5575b5050505050815250509050919050565b600054600160a060020a031633146114465760405160e560020a62461bcd028152600401610b629061279d565b60018054600160a060020a031916600160a060020a0392909216919091179055565b611020600382611f16565b6000818152601460209081526040918290206001018054835181840281018401909452808452606093928301828280156111b857602002820191906000526020600020906000905b825461010083900a900460ff168152602060019283018181049485019490930390920291018084116114bb575094979650505050505050565b600081815260126020526040902054600160a060020a031661155b5760405160e560020a62461bcd02815260206004820152601360248201527f63616e646964617465206e6f74206578697374000000000000000000000000006044820152606401610b62565b6000818152601260209081526040808320805460118452828520858155600181018690556002018590558154600160a060020a031916909155600160a060020a03168084526013835281842093909355518381527f79972dec8ac5d6d62b71dac117aa22b6657efd45463d67dd3b20fe5b6900cb319101610c0b565b33600090815260106020908152604080832054808452600e909252822090916115ff84610ef4565b905060005b60028301548110156116b8578583600201828154811061162657611626612838565b9060005260206000200154036116a65760405160e560020a62461bcd028152602060048201526024808201527f566f746520616c726561647920657869737420746f20676976656e20706f736960448201527f74696f6e000000000000000000000000000000000000000000000000000000006064820152608401610b62565b806116b08161286a565b915050611604565b506002820180546001818101835560009283526020909220018690556040820180516116e5908390612883565b90525060408051848152602081018790527f98feb77d0a18cb15f50d444eb78ea1c0e7461c4c7c44c9df2a863f4af4ade56a910160405180910390a15050505050565b600160a060020a03811660009081526016602090815260408083205480845260148352928190206001018054825181850281018501909352808352606094938301828280156117b457602002820191906000526020600020906000905b825461010083900a900460ff168152602060019283018181049485019490930390920291018084116117855790505b5050505050915050919050565b602080820180516000908152600c83526040808220549251825260129093529190912054600160a060020a0391821691166118415760405160e560020a62461bcd02815260206004820152601360248201527f63616e646964617465206e6f74206578697374000000000000000000000000006044820152606401610b62565b61184b8282611fe8565b6040805183518152602080850151908201528184015191810191909152600160a060020a03821660608201527feda2af3e3296f63f35e995052d67a0028b5352e04f8a0a81379b9d2c87e274dd90608001610c0b565b6000828152600c6020526040902054600160a060020a03161561192f5760405160e560020a62461bcd02815260206004820152603560248201527f5573657220616c7265616479206578697374732c20696e73746561642074727960448201527f207570646174696e6720746865206164647265737300000000000000000000006064820152608401610b62565b6000828152600c602090815260408083208054600160a060020a031916600160a060020a038616908117909155808452600d8352928190208590558051858152918201929092527f3a1aeee4aaee637786d70493a537aaafdc4639c8d61073b4f2369fe3fac70fcf9101610c0b565b600061137a60098361204c565b6040805160608082018352600080835260208084018390528385018290528582526014815290849020845192830185528054835260018101805486518185028101850190975280875294959394919385840193909290830182828015611a4e57602002820191906000526020600020906000905b825461010083900a900460ff16815260206001928301818104948501949093039092029101808411611a1f5790505b50505091835250506002919091015460ff1660209091015292915050565b600061137a60038361204c565b6000818152600f6020526040902054600160a060020a0316611ae05760405160e560020a62461bcd02815260206004820152600f60248201527f566f746572206e6f7420657869737400000000000000000000000000000000006044820152606401610b62565b6000818152600f6020908152604080832054600e909252822082815560018101839055600160a060020a0390911691611b1c600283018261210f565b50506000828152600f602090815260408083208054600160a060020a0319169055600160a060020a0384168352601082528083209290925590518381527f6121654737c718cbbb7f210b6661d1930513701773532ee7ee83a4f03c4a45959101610c0b565b80516000908152600c6020526040902054600160a060020a031680611beb5760405160e560020a62461bcd02815260206004820152601a60248201527f6d656d626572206163636f756e74206e6f7420637265617465640000000000006044820152606401610b62565b8151600090815260156020526040902054600160a060020a031615611c555760405160e560020a62461bcd02815260206004820152601460248201527f6d656d62657220616c72656164792065786973740000000000000000000000006044820152606401610b62565b611c5f8282611e8a565b7f561d8d240fc730c603fd8d42c52c11ad8866df42894b59532851041bf92097658282604051610c0b929190612825565b600054600160a060020a0316331480611cb35750600154600160a060020a031633145b611d285760405160e560020a62461bcd02815260206004820152602c60248201527f4f6e6c79206f776e657220616e642061646d696e2063616e20706572666f726d60448201527f207468697320616374696f6e00000000000000000000000000000000000000006064820152608401610b62565b60028054600160a060020a031916600160a060020a0392909216919091179055565b604080516060808201835260008083526020808401829052838501839052600160a060020a03861682526010815284822054808352600e82529185902085519384018652805484526001810154848301526002810180548751818502810185018952818152969794969294860193830182828015611de757602002820191906000526020600020905b815481526020019060010190808311611dd3575b505050505081525050915050919050565b602080830180516000908152600e90925260408083208551808255925160018083018281559186529290942092835592549082015560028083018054849392611e44929084019161212d565b505050602092830180516000908152600f855260408082208054600160a060020a03909616600160a060020a031990961686179055915193815260109094529092205550565b81516000908152601460209081526040909120835181558184015180518593611eba92600185019291019061217d565b50604091820151600291909101805460ff191660ff90921691909117905582516000908152601560209081528282208054600160a060020a031916600160a060020a039590951694851790559351928152601690935290912055565b8160010181604051611f289190612896565b908152602001604051809103902054600014611f895760405160e560020a62461bcd02815260206004820152601560248201527f56616c756520616c7265616479206578697374732e00000000000000000000006044820152606401610b62565b600282018054906000611f9b8361286a565b9091555050815460018101835560008381526020902001611fbc8282612951565b5081600201548260010182604051611fd49190612896565b908152604051908190036020019020555050565b6020808301805160009081526011835260408082208651815583516001820181905596820151600290910155948152601283528481208054600160a060020a03909516600160a060020a031990951685179055905192815260139091529190912055565b600082600101826040516120609190612896565b9081526020016040518091039020546000036120c15760405160e560020a62461bcd02815260206004820152601460248201527f4974656d20646f6573206e6f742065786973742e0000000000000000000000006044820152606401610b62565b82600101826040516120d39190612896565b908152602001604051809103902054905092915050565b50805460008255601f016020900490600052602060002090810190611020919061221a565b5080546000825590600052602060002090810190611020919061221a565b82805482825590600052602060002090810192821561216d5760005260206000209182015b8281111561216d578254825591600101919060010190612152565b5061217992915061221a565b5090565b82805482825590600052602060002090601f0160209004810192821561216d5791602002820160005b838211156121e457835183826101000a81548160ff021916908360ff16021790555092602001926001016020816000010492830192600103026121a6565b80156122115782816101000a81549060ff02191690556001016020816000010492830192600103026121e4565b50506121799291505b5b80821115612179576000815560010161221b565b60006020828403121561224157600080fd5b5035919050565b8035600160a060020a038116811461225f57600080fd5b919050565b60006020828403121561227657600080fd5b61227f82612248565b9392505050565b60e060020a634e487b7102600052604160045260246000fd5b6040516060810167ffffffffffffffff811182821017156122c2576122c2612286565b60405290565b604051601f8201601f1916810167ffffffffffffffff811182821017156122f1576122f1612286565b604052919050565b600067ffffffffffffffff82111561231357612313612286565b5060209081020190565b6000602080838503121561233057600080fd5b823567ffffffffffffffff8082111561234857600080fd5b908401906060828703121561235c57600080fd5b61236461229f565b82358152838301358482015260408301358281111561238257600080fd5b80840193505086601f84011261239757600080fd5b823591506123ac6123a7836122f9565b6122c8565b828152918402830184019184810190888411156123c857600080fd5b938501935b838510156123e6578435825293850193908501906123cd565b6040830152509695505050505050565b803560ff8116811461225f57600080fd5b6000602080838503121561241a57600080fd5b823567ffffffffffffffff8082111561243257600080fd5b908401906060828703121561244657600080fd5b61244e61229f565b82358152838301358281111561246357600080fd5b83019150601f8201871361247657600080fd5b81356124846123a7826122f9565b818152908502830185019085810190898311156124a057600080fd5b938601935b828510156124c5576124b6856123f6565b825293860193908601906124a5565b83870152506124d89050604084016123f6565b60408201529695505050505050565b8151815260208083015190820152604080830151908201526060810161137a565b600060608301825184526020808401516060828701528281518085526080880191508383019450600092505b8083101561255757845160ff168252938301936001929092019190830190612534565b5060ff60408701511660408801528094505050505092915050565b60208152600061227f6020830184612508565b6000602080838503121561259857600080fd5b823567ffffffffffffffff808211156125b057600080fd5b818501915085601f8301126125c457600080fd5b8135818111156125d6576125d6612286565b6125e8601f8201601f191685016122c8565b915080825286848285010111156125fe57600080fd5b8084840185840137600090820190930192909252509392505050565b60006060828403121561262c57600080fd5b6040516060810181811067ffffffffffffffff8211171561264f5761264f612286565b80604052508235815260208301356020820152604083013560408201528091505092915050565b600081518084526020808501945080840160005b838110156126a65781518752958201959082019060010161268a565b509495945050505050565b60208152600061227f6020830184612676565b600080604083850312156126d757600080fd5b823591506126e760208401612248565b90509250929050565b805182526020810151602083015260006040820151606060408501526127196060850182612676565b949350505050565b60208152600061227f60208301846126f0565b6020808252825182820181905260009190848201906040850190845b8181101561276f57835160ff1683529284019291840191600101612750565b50909695505050505050565b6000806040838503121561278e57600080fd5b50508035926020909101359150565b60208082526022908201527f4f6e6c79206f776e65722063616e20706572666f726d2074686973206163746960408201527f6f6e000000000000000000000000000000000000000000000000000000000000606082015260800190565b60408152600061280d60408301856126f0565b9050600160a060020a03831660208301529392505050565b60408152600061280d6040830185612508565b60e060020a634e487b7102600052603260045260246000fd5b60e060020a634e487b7102600052601160045260246000fd5b60006001820161287c5761287c612851565b5060010190565b8082018082111561137a5761137a612851565b6000825160005b818110156128b7576020818601810151858301520161289d565b506000920191825250919050565b6002810460018216806128d957607f821691505b6020821081036128fc5760e060020a634e487b7102600052602260045260246000fd5b50919050565b601f82111561294c576000818152602081206020601f860104810160208610156129295750805b6020601f860104820191505b8181101561294857828155600101612935565b5050505b505050565b815167ffffffffffffffff81111561296b5761296b612286565b61297f8161297984546128c5565b84612902565b602080601f8311600181146129b8576000841561299c5750858301515b60028086026008870290910a6000190419821617865550612948565b600085815260208120601f198616915b828110156129e7578886015182559484019460019091019084016129c8565b5085821015612a0757878501516008601f88160260020a60001904191681555b505050505060020260010190555056fea26469706673582212202a7c4dcbf23bd9646dac6ce569f1498f93258bbe978d873b8d76ff49fcc93fc164736f6c63430008100033",
  "immutableReferences": {},
  "source": "/**\n@author:- Anurag\n@email:- anurag@c3ihub.iitk.ac.in\n\nUserStorage contract is used to map user id to voter and candidate address, and to manage election verifier, approver.\nThe contract owner and admin have the authority to update voter, candidate, verifier, approver.\n\n*/\n\n// SPDX-License-Identifier: UNLICENSED\npragma solidity ^0.8.16;\n\nimport \"./DataTypes.sol\";\nimport \"./VotingCommon.sol\";\nimport \"./Enums.sol\";\n\ncontract UserStorage is VotingCommon {\n\n    using EnumsLib for EnumsLib.EnumType;\n    \n    EnumsLib.EnumType public designations;\n    EnumsLib.EnumType public roles;\n    EnumsLib.EnumType public positions;\n\n    // Mapping for User\n    mapping(bytes32 => address) public userMap;\n    mapping(address => bytes32) public userReverseMap;\n\n    // Mapping for voter \n    mapping(bytes32 => Voter) public voterMap; // voter id => voter detail object\n    mapping(bytes32 => address) public voterAddressMap; // voter id => voter address\n    mapping(address => bytes32) public voterReverseMap; // address => id\n\n    // Mapping for candidate\n    mapping(bytes32 => Candidate) public candidateMap; // candidate id => candidate detail object\n    mapping(bytes32 => address) public candidateAddressMap; // candidate id => candidate address\n    mapping(address => bytes32) public candidateReverseMap; // address => id\n\n    // Mapping for Election officer members\n    mapping(bytes32 => Member) public memberMap; // member id => member object\n    mapping(bytes32 => address) public memberAddressMap; // member id => address\n    mapping(address => bytes32) public memberReverseMap; // address => id\n\n    // Event emtted after a user added\n    event UserAdded(bytes32 userId, address userAddress);\n    event UserUpdated(bytes32 userId, address userAddress);\n    event UserDeleted(bytes32 userId, address userAddress);\n\n    // Event emmited after a voter added\n    event VoterAdded(bytes32 voterId, address voterAddress);\n    // Event emmited after a voter updated\n    event VoterUpdated(Voter voter, address voterAddress);\n    // Event emmited after a voter deleted\n    event VoterDeleted(bytes32 voterId);\n\n    // Event emmited after a candidate added\n    event CandidateAdded(Candidate candidate, address candidateAddress);\n    // Ememt emmited after a candidate update\n    event CandidateUpdated(Candidate candidate, address candidateAddress);\n    // Ememt emmited after a candidate deleted\n    event CandidateDeleted(bytes32 candidateId);\n\n    // Event emmited after a member added\n    event MemberAdded(Member member, address memberAddress);\n    // Event emmited after a member updated\n    event MemberUpdated(Member member, address memberAddress);\n    // Event emmited after a member deleted\n    event MemberDeleted(bytes32 memberId);\n\n    // Event emmited after vote cast function\n    event VoteCast(bytes32 voterId, bytes32 positionId);\n\n    // constructor to set the initial state of the contract\n    constructor(\n        address _admin,\n        address _manager\n    ) VotingCommon(_admin, _manager) {}\n\n\n    // function to add designation value\n    function addDesignation(string memory _designation) public {\n        designations.addEnumType(_designation);\n    }\n\n    \n    // function to add role value\n    function addRole(string memory _role) public {\n        roles.addEnumType(_role);\n    }\n\n    // function to add posiiton value\n    function addPosition(string memory _position) public {\n        roles.addEnumType(_position);\n    }\n\n    // function to get designation value\n    function getDesignationValue(string memory _designation) public view returns(uint) {\n        return designations.getEnumValue(_designation);\n    }\n    \n    // function to get role value in int\n    function getRoleValue(string memory _role) public view returns(uint) {\n        return roles.getEnumValue(_role);\n    }\n\n    // function to get position value in int\n    function getPositionValue(string memory _position) public view returns(uint) {\n        return positions.getEnumValue(_position);\n    }\n\n/*\n     * @dev Function to add a user\n * @param userId 12 bit uint id of the user\n * @param userAddress address of the user\n */\n     function addUser(bytes32 userId, address userAddress) public  {\n        // check is user already does not exist\n        if(userMap[userId]!=address(0)){\n            revert(\"User already exists, instead try updating the address\");\n        }\n        // Update the user in the mapping\n        userMap[userId] = userAddress;\n        userReverseMap[userAddress]=userId;\n\n        // Emit the UserAdded event\n        emit UserAdded(userId, userAddress);\n    }\n\n    /*\n     * @dev Function to update a user\n * @param userId 12 bit uint id of the user\n * @param userAddress address of the user\n */\n    function updateUser(bytes32 _userId, address _userAddress) public  {\n        // check if user already exists\n        if(userMap[_userId]==address(0)){\n            revert(\"user does not exist\");\n        }\n\n        // Update the user in the mapping\n        userMap[_userId] = _userAddress;\n        userReverseMap[_userAddress]=_userId;\n\n        // Emit the UserUpdated event\n        emit UserUpdated(_userId, _userAddress);\n    }\n\n    /*\n * @dev Function to update a user\n * @param userId 12 bit uint id of the user\n * @param userAddress address of the user\n    */\n    function deleteUser(bytes32 _userId) public {\n        address userAddress = userMap[_userId];\n         if(userMap[_userId]==address(0)){\n            revert(\"user does not exist\");\n        }\n        // Update the user in the mapping\n        userMap[_userId] = address(0);\n        userReverseMap[userAddress]=\"\";\n        // Emit the UserUpdated event\n        emit UserDeleted(_userId, userAddress);\n    }\n\n    /*\n    Function to get user id\n    */\n    function getUserId(address userAddress) public view returns(bytes32){\n        return userReverseMap[userAddress];\n    }\n\n    /*\n    Function to get user address\n    */\n    function getUserAddress(bytes32 userId) public view returns(address){\n        return userMap[userId];\n    }\n\n   \n    /*\n  Function for add voter\n  @param detail object of the voter\n  @param address of the voter\n  */\n    function addVoter(\n        Voter memory _voter\n    ) public  {\n        address voterAddress = userMap[_voter.voterId];\n        if (voterAddress == address(0)) {\n            revert(\"Candidate account not created\");\n        }\n        // check is user already does not exist\n        if (voterAddressMap[_voter.voterId] != address(0)) {\n            revert(\"Voter already exist\");\n        }\n        // save details in function to store data in mapping\n        saveVoterInMap(_voter, voterAddress);\n        // emit voter added event\n        emit VoterAdded(_voter.voterId, voterAddress);\n    }\n\n    /*\n  Function for update voter\n  @param detail object of the voter\n  @param address of the voter\n  */\n    function updateVoter(\n        Voter memory _voter\n    ) public  {\n        address voterAddress = userMap[_voter.voterId];\n        // save details in function to store data in mapping\n        saveVoterInMap(_voter, voterAddress);\n        // emit voter added event\n        emit VoterUpdated(_voter, voterAddress);\n    }\n\n    /*\n  Function for storing value internally in mapping\n  @param detail object of the voter\n  @param address of the voter\n  */\n    function saveVoterInMap(\n        Voter memory _voter,\n        address _voterAddress\n    ) internal {\n        Voter storage voter = voterMap[_voter.voterId];\n        voter.universityId = _voter.universityId;\n        voter.voterId = _voter.voterId;\n        voterMap[voter.voterId] = voter;\n        voterAddressMap[_voter.voterId] = _voterAddress;\n        voterReverseMap[_voterAddress] = _voter.voterId;\n    }\n\n    /*\n  Function to delete voter\n  @param detail object of the voter\n  */\n    function deleteVoter(\n        bytes32 _voterId\n    ) public {\n        // check if voter already exist\n        if (voterAddressMap[_voterId] == address(0)) {\n            revert(\"Voter not exist\");\n        }\n        address voterAddress = voterAddressMap[_voterId];\n        delete(voterMap[_voterId]);\n        delete(voterAddressMap[_voterId]);\n        delete(voterReverseMap[voterAddress]);\n        // emit voter deleted event\n        emit VoterDeleted(_voterId);\n    }\n\n    /*\n  Function to get voter id from voter address\n  @param bytes voter id \n  */\n    function getVoterId(address _voterAddress) public view returns (bytes32) {\n        return voterReverseMap[_voterAddress];\n    }\n\n    /*\n  Function to get voter each position status\n  @param bytes voter id \n  */\n    function getVoterAddress(bytes32 _voterId) public view returns (address) {\n        return voterAddressMap[_voterId];\n    }\n\n    /*\n  Function to get voter each position status\n  @param bytes voter id \n  */\n    function getVoterPositionStatus(\n        bytes32 _voterId\n    ) public view returns (bytes32[] memory) {\n        return voterMap[_voterId].positionVote;\n    }\n\n    /*\n  Function to get voter detail\n  @param bytes voter id \n  */\n    function getVoterDetail(\n        bytes32 _voterId\n    ) public view returns (Voter memory) {\n        return voterMap[_voterId];\n    }\n\n    /*\n  Function to get voter detail\n  @param bytes voter address \n  */\n    function getVoterDetailByAddress(\n        address _voterAddress\n    ) public view returns (Voter memory) {\n        bytes32 voterId = voterReverseMap[_voterAddress];\n        return voterMap[voterId];\n    }\n\n    /*\n        CANDIDATE OPERATIONS\n   */\n\n    /*\n  Function for add candidate\n  @param detail object of the candidate\n  */\n    function addCandidate(Candidate memory _candidate) public {\n        address candidateAddress = userMap[_candidate.candidateId];\n        if (candidateAddress == address(0)) {\n            revert(\"Candidate account not created\");\n        }\n        // check for candidate address already exist\n        if (candidateAddressMap[_candidate.candidateId] != address(0)) {\n            revert(\"candidate already exist\");\n        }\n        // save details in function to store data in mapping\n        saveCandidateInMap(_candidate, candidateAddress);\n        // emit candidate added event\n        emit CandidateAdded(_candidate, candidateAddress);\n    }\n\n    /*\n  Function for update candidate\n  @param detail object of the candidate\n  */\n    function updateCandidate(Candidate memory _candidate) public {\n        address candidateAddress = userMap[_candidate.candidateId];\n        // check for candidate address not exist already\n        if (candidateAddressMap[_candidate.candidateId] == address(0)) {\n            revert(\"candidate not exist\");\n        }\n        // save details in function to store data in mapping\n        saveCandidateInMap(_candidate, candidateAddress);\n        // emit candidate added event\n        emit CandidateUpdated(_candidate, candidateAddress);\n    }\n\n    /*\n  Function for storing value internally in mapping\n  @param detail object of the candidate\n  @param address of the candidate\n  */\n    function saveCandidateInMap(\n        Candidate memory _candidate,\n        address _candidateAddress\n    ) internal {\n        candidateMap[_candidate.candidateId] = _candidate;\n        candidateAddressMap[_candidate.candidateId] = _candidateAddress;\n        candidateReverseMap[_candidateAddress] = _candidate.candidateId;\n    }\n\n    /*\n  Function to delete candidate\n  @param detail object of the candidate\n  */\n    function deleteCandidate(\n        bytes32 _candidateId\n    ) public  {\n        // check if candidate already exist\n        if (candidateAddressMap[_candidateId] == address(0)) {\n            revert(\"candidate not exist\");\n        }\n        address candidateAddress = candidateAddressMap[_candidateId];\n        delete(candidateMap[_candidateId]);\n        delete(candidateAddressMap[_candidateId]);\n        delete(candidateReverseMap[candidateAddress]);\n        // emit candidate deleted event\n        emit CandidateDeleted(_candidateId);\n    }\n\n    /*\n  Function to get candidate id from candidate address\n  @param bytes candidate id \n  */\n    function getCandidateId(\n        address _candidateAddress\n    ) public view returns (bytes32) {\n        return candidateReverseMap[_candidateAddress];\n    }\n\n    /*\n  Function to get candidate each position status\n  @param bytes candidate id \n  */\n    function getCandidateAddress(\n        bytes32 _candidateId\n    ) public view returns (address) {\n        return candidateAddressMap[_candidateId];\n    }\n\n    /*\n  Function to get candidate detail\n  @param bytes candidate id \n  */\n    function getCandidateDetail(\n        bytes32 _candidateId\n    ) public view returns (Candidate memory) {\n        return candidateMap[_candidateId];\n    }\n\n    /*\n  Function to get candidate detail to address\n  @param candidate address\n  */\n    function getCandidateByAddress(\n        address _candidateAddress\n    ) public view returns (Candidate memory) {\n        bytes32 candidateId = candidateReverseMap[_candidateAddress];\n        return candidateMap[candidateId];\n    }\n\n    /*\n  Function to get candidate vote count\n  @param bytes candidate id \n  */\n    function getCandidateVotes(\n        bytes32 _candidateId\n    ) public view returns (uint256) {\n        return candidateMap[_candidateId].voteCount;\n    }\n\n    /*\n  Function to get candidate vote count from address\n  @param address\n  */\n    function getCandidateVotesByAddress(\n        address _candidateAddress\n    ) public view returns (uint256) {\n        bytes32 candidateId = candidateReverseMap[_candidateAddress];\n        return candidateMap[candidateId].voteCount;\n    }\n\n    /*\n  Function to get candidate position\n  @param bytes candidate address\n  */\n    function getCandidatePositionByAddress(\n        address _candidateAddress\n    ) public view returns (bytes32) {\n        bytes32 candidateId = candidateReverseMap[_candidateAddress];\n        return candidateMap[candidateId].positionId;\n    }\n\n    /*\n  Function to get candidate position\n  @param bytes candidate id \n  */\n    function getCandidatePosition(\n        bytes32 _candidateId\n    ) public view returns (bytes32) {\n        return candidateMap[_candidateId].positionId;\n    }\n\n    /*\n        ELECTION OFFICER MEMBER OPERATIONS\n    */\n\n    /*\n  Function for add member\n  @param detail object of the member\n  */\n    function addMember(Member memory _member) public {\n        address memberAddress = userMap[_member.memberId];\n        if (memberAddress == address(0)) {\n            revert(\"member account not created\");\n        }\n        // check for member address not exist already\n        if (memberAddressMap[_member.memberId] != address(0)) {\n            revert(\"member already exist\");\n        }\n        // save details in function to store data in mapping\n        saveMemberInMap(_member, memberAddress);\n        // emit member added event\n        emit MemberAdded(_member, memberAddress);\n    }\n\n    /*\n  Function for update member\n  @param detail object of the member\n  */\n    function updateMember(Member memory _member) public {\n        address memberAddress = userMap[_member.memberId];\n        // check for member address not exist already\n        if (memberAddressMap[_member.memberId] == address(0)) {\n            revert(\"Member not exist\");\n        }\n        // save details in function to store data in mapping\n        saveMemberInMap(_member, memberAddress);\n        // emit member added event\n        emit MemberUpdated(_member, memberAddress);\n    }\n\n    /*\n  Function for storing value internally in mapping\n  @param detail object of the member\n  @param address of the member\n  */\n    function saveMemberInMap(\n        Member memory _member,\n        address _memberAddress\n    ) internal {\n        memberMap[_member.memberId] = _member;\n        memberAddressMap[_member.memberId] = _memberAddress;\n        memberReverseMap[_memberAddress] = _member.memberId;\n    }\n\n    /*\n  Function to delete member\n  @param detail object of the member\n  */\n    function deleteMember(\n        bytes32 _memberId\n    ) public  {\n        // check if member already exist\n        if (memberAddressMap[_memberId] == address(0)) {\n            revert(\"member not exist\");\n        }\n        address memberAddress = memberAddressMap[_memberId];\n        delete(memberMap[_memberId]);\n        delete(memberAddressMap[_memberId]);\n        delete(memberReverseMap[memberAddress]);\n        // emit member deleted event\n        emit MemberDeleted(_memberId);\n    }\n\n    /*\n  Function for get member id by address\n  @param address\n  */\n    function getMemberId(address _memberAddress) public view returns (bytes32) {\n        return memberReverseMap[_memberAddress];\n    }\n\n    /*\n  Function for get member address by id\n  @param bytes member id\n  */\n    function getMemberAddress(bytes32 _memberId) public view returns (address) {\n        return memberAddressMap[_memberId];\n    }\n\n    /*\n  Function for get member details by id\n  @param address\n  */\n    function getMemberDetail(\n        bytes32 _memberId\n    ) public view returns (Member memory) {\n        return memberMap[_memberId];\n    }\n\n    /*\n  Function for get member roles by id\n  @param address\n  */\n    function getMemberRoles(\n        bytes32 _memberId\n    ) public view returns (uint8[] memory) {\n        return memberMap[_memberId].roles;\n    }\n\n    /*\n  Function for get member detail by address\n  @param address\n  */\n    function getMemberByAddress(\n        address _memberAddress\n    ) public view returns (Member memory) {\n        bytes32 memberId = memberReverseMap[_memberAddress];\n        return memberMap[memberId];\n    }\n\n    /*\n  Function for get member roles by address\n  @param address\n  */\n    function getMemberRolesByAddress(\n        address _memberAddress\n    ) public view returns (uint8[] memory) {\n        bytes32 memberId = memberReverseMap[_memberAddress];\n        return memberMap[memberId].roles;\n    }\n\n    /*\n    Function to vote cast\n    */\n    function voteCast(bytes32 _positionId, bytes32 _candidateId) external {\n        bytes32 voterId = voterReverseMap[msg.sender];\n        Voter storage voter = voterMap[voterId]; \n        Candidate memory candidate = getCandidateDetail(_candidateId);\n\n        for(uint i=0; i<voter.positionVote.length; i++){\n            if(voter.positionVote[i] == _positionId){\n                revert(\"Vote already exist to given position\");\n            }\n        }\n\n        voter.positionVote.push(_positionId);\n        candidate.voteCount += 1;\n        emit VoteCast(voterId, _positionId);\n    }\n}\n",
  "sourcePath": "/home/anurag/Documents/iitk/c3i/evoting/evoting-contract/smart_contract/contracts/UserStorage.sol",
  "compiler": {
    "name": "solc",
    "version": "0.8.16+commit.07a7930e.Emscripten.clang"
  },
  "schemaVersion": "3.4.14",
  "updatedAt": "2023-09-20T07:04:43.060Z",
  "networkType": "ethereum",
  "devdoc": {
    "kind": "dev",
    "methods": {},
    "version": 1
  },
  "userdoc": {
    "kind": "user",
    "methods": {},
    "version": 1
  }
}