{
  "contractName": "UserManager",
  "abi": [
    {
      "inputs": [
        {
          "internalType": "address",
          "name": "_admin",
          "type": "address"
        },
        {
          "internalType": "address",
          "name": "_manager",
          "type": "address"
        }
      ],
      "stateMutability": "nonpayable",
      "type": "constructor"
    },
    {
      "anonymous": false,
      "inputs": [
        {
          "indexed": false,
          "internalType": "bytes32",
          "name": "voterId",
          "type": "bytes32"
        }
      ],
      "name": "VoterAdded",
      "type": "event"
    },
    {
      "inputs": [],
      "name": "getAdmin",
      "outputs": [
        {
          "internalType": "address",
          "name": "",
          "type": "address"
        }
      ],
      "stateMutability": "view",
      "type": "function",
      "constant": true
    },
    {
      "inputs": [],
      "name": "getManager",
      "outputs": [
        {
          "internalType": "address",
          "name": "",
          "type": "address"
        }
      ],
      "stateMutability": "view",
      "type": "function",
      "constant": true
    },
    {
      "inputs": [],
      "name": "getOwner",
      "outputs": [
        {
          "internalType": "address",
          "name": "",
          "type": "address"
        }
      ],
      "stateMutability": "view",
      "type": "function",
      "constant": true
    },
    {
      "inputs": [
        {
          "internalType": "address",
          "name": "_admin",
          "type": "address"
        }
      ],
      "name": "setAdmin",
      "outputs": [],
      "stateMutability": "nonpayable",
      "type": "function"
    },
    {
      "inputs": [
        {
          "internalType": "address",
          "name": "_manager",
          "type": "address"
        }
      ],
      "name": "setManager",
      "outputs": [],
      "stateMutability": "nonpayable",
      "type": "function"
    },
    {
      "inputs": [
        {
          "internalType": "address",
          "name": "_owner",
          "type": "address"
        }
      ],
      "name": "setOwner",
      "outputs": [],
      "stateMutability": "nonpayable",
      "type": "function"
    },
    {
      "inputs": [],
      "name": "userStorage",
      "outputs": [
        {
          "internalType": "contract UserStorage",
          "name": "",
          "type": "address"
        }
      ],
      "stateMutability": "view",
      "type": "function",
      "constant": true
    },
    {
      "inputs": [],
      "name": "userStorageAddress",
      "outputs": [
        {
          "internalType": "address",
          "name": "",
          "type": "address"
        }
      ],
      "stateMutability": "view",
      "type": "function",
      "constant": true
    },
    {
      "inputs": [
        {
          "internalType": "address",
          "name": "_userStorageAddress",
          "type": "address"
        }
      ],
      "name": "loadUserStorage",
      "outputs": [],
      "stateMutability": "nonpayable",
      "type": "function"
    },
    {
      "inputs": [
        {
          "internalType": "string",
          "name": "_designation",
          "type": "string"
        }
      ],
      "name": "addDesignation",
      "outputs": [],
      "stateMutability": "nonpayable",
      "type": "function"
    },
    {
      "inputs": [
        {
          "internalType": "string",
          "name": "_role",
          "type": "string"
        }
      ],
      "name": "addRole",
      "outputs": [],
      "stateMutability": "nonpayable",
      "type": "function"
    },
    {
      "inputs": [
        {
          "internalType": "string",
          "name": "_position",
          "type": "string"
        }
      ],
      "name": "addPosition",
      "outputs": [],
      "stateMutability": "nonpayable",
      "type": "function"
    },
    {
      "inputs": [
        {
          "internalType": "string",
          "name": "_designation",
          "type": "string"
        }
      ],
      "name": "getDesignationValue",
      "outputs": [
        {
          "internalType": "uint256",
          "name": "",
          "type": "uint256"
        }
      ],
      "stateMutability": "view",
      "type": "function",
      "constant": true
    },
    {
      "inputs": [
        {
          "internalType": "string",
          "name": "_role",
          "type": "string"
        }
      ],
      "name": "getRoleValue",
      "outputs": [
        {
          "internalType": "uint256",
          "name": "",
          "type": "uint256"
        }
      ],
      "stateMutability": "view",
      "type": "function",
      "constant": true
    },
    {
      "inputs": [
        {
          "internalType": "string",
          "name": "_position",
          "type": "string"
        }
      ],
      "name": "getPositionValue",
      "outputs": [
        {
          "internalType": "uint256",
          "name": "",
          "type": "uint256"
        }
      ],
      "stateMutability": "view",
      "type": "function",
      "constant": true
    },
    {
      "inputs": [
        {
          "internalType": "bytes32",
          "name": "_userId",
          "type": "bytes32"
        },
        {
          "internalType": "address",
          "name": "_userAddress",
          "type": "address"
        }
      ],
      "name": "addUser",
      "outputs": [],
      "stateMutability": "nonpayable",
      "type": "function"
    },
    {
      "inputs": [
        {
          "internalType": "bytes32",
          "name": "_userId",
          "type": "bytes32"
        },
        {
          "internalType": "address",
          "name": "_userAddress",
          "type": "address"
        }
      ],
      "name": "updateUser",
      "outputs": [],
      "stateMutability": "nonpayable",
      "type": "function"
    },
    {
      "inputs": [
        {
          "internalType": "bytes32",
          "name": "_userId",
          "type": "bytes32"
        }
      ],
      "name": "deleteUser",
      "outputs": [],
      "stateMutability": "nonpayable",
      "type": "function"
    },
    {
      "inputs": [
        {
          "internalType": "bytes32",
          "name": "_userId",
          "type": "bytes32"
        }
      ],
      "name": "getUserAddress",
      "outputs": [
        {
          "internalType": "address",
          "name": "",
          "type": "address"
        }
      ],
      "stateMutability": "view",
      "type": "function",
      "constant": true
    },
    {
      "inputs": [
        {
          "internalType": "address",
          "name": "_userAddress",
          "type": "address"
        }
      ],
      "name": "getUserId",
      "outputs": [
        {
          "internalType": "bytes32",
          "name": "",
          "type": "bytes32"
        }
      ],
      "stateMutability": "view",
      "type": "function",
      "constant": true
    },
    {
      "inputs": [
        {
          "components": [
            {
              "internalType": "bytes32",
              "name": "universityId",
              "type": "bytes32"
            },
            {
              "internalType": "bytes32",
              "name": "voterId",
              "type": "bytes32"
            },
            {
              "internalType": "bytes32[]",
              "name": "positionVote",
              "type": "bytes32[]"
            }
          ],
          "internalType": "struct Voter",
          "name": "_voter",
          "type": "tuple"
        }
      ],
      "name": "addVoter",
      "outputs": [],
      "stateMutability": "nonpayable",
      "type": "function"
    },
    {
      "inputs": [
        {
          "components": [
            {
              "internalType": "bytes32",
              "name": "universityId",
              "type": "bytes32"
            },
            {
              "internalType": "bytes32",
              "name": "voterId",
              "type": "bytes32"
            },
            {
              "internalType": "bytes32[]",
              "name": "positionVote",
              "type": "bytes32[]"
            }
          ],
          "internalType": "struct Voter",
          "name": "_voter",
          "type": "tuple"
        }
      ],
      "name": "updateVoter",
      "outputs": [],
      "stateMutability": "nonpayable",
      "type": "function"
    },
    {
      "inputs": [
        {
          "internalType": "bytes32",
          "name": "_voterId",
          "type": "bytes32"
        }
      ],
      "name": "deletedVoter",
      "outputs": [],
      "stateMutability": "nonpayable",
      "type": "function"
    },
    {
      "inputs": [
        {
          "internalType": "address",
          "name": "_voterAddress",
          "type": "address"
        }
      ],
      "name": "getVoterId",
      "outputs": [
        {
          "internalType": "bytes32",
          "name": "",
          "type": "bytes32"
        }
      ],
      "stateMutability": "view",
      "type": "function",
      "constant": true
    },
    {
      "inputs": [
        {
          "internalType": "bytes32",
          "name": "_voterId",
          "type": "bytes32"
        }
      ],
      "name": "getVoterAddress",
      "outputs": [
        {
          "internalType": "address",
          "name": "",
          "type": "address"
        }
      ],
      "stateMutability": "view",
      "type": "function",
      "constant": true
    },
    {
      "inputs": [
        {
          "internalType": "bytes32",
          "name": "_voterId",
          "type": "bytes32"
        }
      ],
      "name": "getVoterPositionStatus",
      "outputs": [
        {
          "internalType": "bytes32[]",
          "name": "",
          "type": "bytes32[]"
        }
      ],
      "stateMutability": "view",
      "type": "function",
      "constant": true
    },
    {
      "inputs": [
        {
          "internalType": "bytes32",
          "name": "_voterId",
          "type": "bytes32"
        }
      ],
      "name": "getVoterDetail",
      "outputs": [
        {
          "components": [
            {
              "internalType": "bytes32",
              "name": "universityId",
              "type": "bytes32"
            },
            {
              "internalType": "bytes32",
              "name": "voterId",
              "type": "bytes32"
            },
            {
              "internalType": "bytes32[]",
              "name": "positionVote",
              "type": "bytes32[]"
            }
          ],
          "internalType": "struct Voter",
          "name": "",
          "type": "tuple"
        }
      ],
      "stateMutability": "view",
      "type": "function",
      "constant": true
    },
    {
      "inputs": [
        {
          "internalType": "address",
          "name": "_voterAddress",
          "type": "address"
        }
      ],
      "name": "getVoterDetailByAddress",
      "outputs": [
        {
          "components": [
            {
              "internalType": "bytes32",
              "name": "universityId",
              "type": "bytes32"
            },
            {
              "internalType": "bytes32",
              "name": "voterId",
              "type": "bytes32"
            },
            {
              "internalType": "bytes32[]",
              "name": "positionVote",
              "type": "bytes32[]"
            }
          ],
          "internalType": "struct Voter",
          "name": "",
          "type": "tuple"
        }
      ],
      "stateMutability": "view",
      "type": "function",
      "constant": true
    },
    {
      "inputs": [
        {
          "components": [
            {
              "internalType": "bytes32",
              "name": "positionId",
              "type": "bytes32"
            },
            {
              "internalType": "bytes32",
              "name": "candidateId",
              "type": "bytes32"
            },
            {
              "internalType": "uint256",
              "name": "voteCount",
              "type": "uint256"
            }
          ],
          "internalType": "struct Candidate",
          "name": "_candidate",
          "type": "tuple"
        }
      ],
      "name": "addCandidate",
      "outputs": [],
      "stateMutability": "nonpayable",
      "type": "function"
    },
    {
      "inputs": [
        {
          "components": [
            {
              "internalType": "bytes32",
              "name": "positionId",
              "type": "bytes32"
            },
            {
              "internalType": "bytes32",
              "name": "candidateId",
              "type": "bytes32"
            },
            {
              "internalType": "uint256",
              "name": "voteCount",
              "type": "uint256"
            }
          ],
          "internalType": "struct Candidate",
          "name": "_candidate",
          "type": "tuple"
        }
      ],
      "name": "updateCandidate",
      "outputs": [],
      "stateMutability": "nonpayable",
      "type": "function"
    },
    {
      "inputs": [
        {
          "internalType": "bytes32",
          "name": "_candidateId",
          "type": "bytes32"
        }
      ],
      "name": "deletedCandidate",
      "outputs": [],
      "stateMutability": "nonpayable",
      "type": "function"
    },
    {
      "inputs": [
        {
          "internalType": "address",
          "name": "_candidateAddress",
          "type": "address"
        }
      ],
      "name": "getCandidateId",
      "outputs": [
        {
          "internalType": "bytes32",
          "name": "",
          "type": "bytes32"
        }
      ],
      "stateMutability": "view",
      "type": "function",
      "constant": true
    },
    {
      "inputs": [
        {
          "internalType": "bytes32",
          "name": "_candidateId",
          "type": "bytes32"
        }
      ],
      "name": "getcandidateAddress",
      "outputs": [
        {
          "internalType": "address",
          "name": "",
          "type": "address"
        }
      ],
      "stateMutability": "view",
      "type": "function",
      "constant": true
    },
    {
      "inputs": [
        {
          "internalType": "bytes32",
          "name": "_candidateId",
          "type": "bytes32"
        }
      ],
      "name": "getCandidateDetail",
      "outputs": [
        {
          "components": [
            {
              "internalType": "bytes32",
              "name": "positionId",
              "type": "bytes32"
            },
            {
              "internalType": "bytes32",
              "name": "candidateId",
              "type": "bytes32"
            },
            {
              "internalType": "uint256",
              "name": "voteCount",
              "type": "uint256"
            }
          ],
          "internalType": "struct Candidate",
          "name": "",
          "type": "tuple"
        }
      ],
      "stateMutability": "view",
      "type": "function",
      "constant": true
    },
    {
      "inputs": [
        {
          "internalType": "address",
          "name": "_candidateAddress",
          "type": "address"
        }
      ],
      "name": "getCandidateByAddress",
      "outputs": [
        {
          "components": [
            {
              "internalType": "bytes32",
              "name": "positionId",
              "type": "bytes32"
            },
            {
              "internalType": "bytes32",
              "name": "candidateId",
              "type": "bytes32"
            },
            {
              "internalType": "uint256",
              "name": "voteCount",
              "type": "uint256"
            }
          ],
          "internalType": "struct Candidate",
          "name": "",
          "type": "tuple"
        }
      ],
      "stateMutability": "view",
      "type": "function",
      "constant": true
    },
    {
      "inputs": [
        {
          "internalType": "bytes32",
          "name": "_candidateId",
          "type": "bytes32"
        }
      ],
      "name": "getCandidateVotes",
      "outputs": [
        {
          "internalType": "uint256",
          "name": "",
          "type": "uint256"
        }
      ],
      "stateMutability": "view",
      "type": "function",
      "constant": true
    },
    {
      "inputs": [
        {
          "internalType": "address",
          "name": "_candidateAddress",
          "type": "address"
        }
      ],
      "name": "getCandidateVotesByAddress",
      "outputs": [
        {
          "internalType": "uint256",
          "name": "",
          "type": "uint256"
        }
      ],
      "stateMutability": "view",
      "type": "function",
      "constant": true
    },
    {
      "inputs": [
        {
          "internalType": "bytes32",
          "name": "_candidateId",
          "type": "bytes32"
        }
      ],
      "name": "getCandidatePosition",
      "outputs": [
        {
          "internalType": "bytes32",
          "name": "",
          "type": "bytes32"
        }
      ],
      "stateMutability": "view",
      "type": "function",
      "constant": true
    },
    {
      "inputs": [
        {
          "internalType": "address",
          "name": "_candidateAddress",
          "type": "address"
        }
      ],
      "name": "getCandidatePositionByAddress",
      "outputs": [
        {
          "internalType": "bytes32",
          "name": "",
          "type": "bytes32"
        }
      ],
      "stateMutability": "view",
      "type": "function",
      "constant": true
    },
    {
      "inputs": [
        {
          "components": [
            {
              "internalType": "bytes32",
              "name": "memberId",
              "type": "bytes32"
            },
            {
              "internalType": "uint8[]",
              "name": "roles",
              "type": "uint8[]"
            },
            {
              "internalType": "uint8",
              "name": "designation",
              "type": "uint8"
            }
          ],
          "internalType": "struct Member",
          "name": "_member",
          "type": "tuple"
        }
      ],
      "name": "addMember",
      "outputs": [],
      "stateMutability": "nonpayable",
      "type": "function"
    },
    {
      "inputs": [
        {
          "components": [
            {
              "internalType": "bytes32",
              "name": "memberId",
              "type": "bytes32"
            },
            {
              "internalType": "uint8[]",
              "name": "roles",
              "type": "uint8[]"
            },
            {
              "internalType": "uint8",
              "name": "designation",
              "type": "uint8"
            }
          ],
          "internalType": "struct Member",
          "name": "_member",
          "type": "tuple"
        }
      ],
      "name": "addDirector",
      "outputs": [],
      "stateMutability": "nonpayable",
      "type": "function"
    },
    {
      "inputs": [
        {
          "components": [
            {
              "internalType": "bytes32",
              "name": "memberId",
              "type": "bytes32"
            },
            {
              "internalType": "uint8[]",
              "name": "roles",
              "type": "uint8[]"
            },
            {
              "internalType": "uint8",
              "name": "designation",
              "type": "uint8"
            }
          ],
          "internalType": "struct Member",
          "name": "_member",
          "type": "tuple"
        }
      ],
      "name": "updateMember",
      "outputs": [],
      "stateMutability": "nonpayable",
      "type": "function"
    },
    {
      "inputs": [
        {
          "internalType": "bytes32",
          "name": "_memberId",
          "type": "bytes32"
        }
      ],
      "name": "deletedMember",
      "outputs": [],
      "stateMutability": "nonpayable",
      "type": "function"
    },
    {
      "inputs": [
        {
          "internalType": "address",
          "name": "_memberAddress",
          "type": "address"
        }
      ],
      "name": "getMemberId",
      "outputs": [
        {
          "internalType": "bytes32",
          "name": "",
          "type": "bytes32"
        }
      ],
      "stateMutability": "view",
      "type": "function",
      "constant": true
    },
    {
      "inputs": [
        {
          "internalType": "bytes32",
          "name": "_memberId",
          "type": "bytes32"
        }
      ],
      "name": "getMemberAddress",
      "outputs": [
        {
          "internalType": "address",
          "name": "",
          "type": "address"
        }
      ],
      "stateMutability": "view",
      "type": "function",
      "constant": true
    },
    {
      "inputs": [
        {
          "internalType": "bytes32",
          "name": "_memberId",
          "type": "bytes32"
        }
      ],
      "name": "getMemberDetail",
      "outputs": [
        {
          "components": [
            {
              "internalType": "bytes32",
              "name": "memberId",
              "type": "bytes32"
            },
            {
              "internalType": "uint8[]",
              "name": "roles",
              "type": "uint8[]"
            },
            {
              "internalType": "uint8",
              "name": "designation",
              "type": "uint8"
            }
          ],
          "internalType": "struct Member",
          "name": "",
          "type": "tuple"
        }
      ],
      "stateMutability": "view",
      "type": "function",
      "constant": true
    },
    {
      "inputs": [
        {
          "internalType": "address",
          "name": "_memberAddress",
          "type": "address"
        }
      ],
      "name": "getMemberByAddress",
      "outputs": [
        {
          "components": [
            {
              "internalType": "bytes32",
              "name": "memberId",
              "type": "bytes32"
            },
            {
              "internalType": "uint8[]",
              "name": "roles",
              "type": "uint8[]"
            },
            {
              "internalType": "uint8",
              "name": "designation",
              "type": "uint8"
            }
          ],
          "internalType": "struct Member",
          "name": "",
          "type": "tuple"
        }
      ],
      "stateMutability": "view",
      "type": "function",
      "constant": true
    },
    {
      "inputs": [
        {
          "internalType": "bytes32",
          "name": "_memberId",
          "type": "bytes32"
        }
      ],
      "name": "getMemberRoles",
      "outputs": [
        {
          "internalType": "uint8[]",
          "name": "",
          "type": "uint8[]"
        }
      ],
      "stateMutability": "view",
      "type": "function",
      "constant": true
    },
    {
      "inputs": [
        {
          "internalType": "address",
          "name": "_memberAddress",
          "type": "address"
        }
      ],
      "name": "getMemberRolesByAddress",
      "outputs": [
        {
          "internalType": "uint8[]",
          "name": "",
          "type": "uint8[]"
        }
      ],
      "stateMutability": "view",
      "type": "function",
      "constant": true
    },
    {
      "inputs": [
        {
          "components": [
            {
              "internalType": "bytes32",
              "name": "memberId",
              "type": "bytes32"
            },
            {
              "internalType": "uint8[]",
              "name": "roles",
              "type": "uint8[]"
            },
            {
              "internalType": "uint8",
              "name": "designation",
              "type": "uint8"
            }
          ],
          "internalType": "struct Member",
          "name": "_member",
          "type": "tuple"
        },
        {
          "internalType": "string",
          "name": "roleName",
          "type": "string"
        }
      ],
      "name": "isMemberHasRole",
      "outputs": [
        {
          "internalType": "bool",
          "name": "",
          "type": "bool"
        }
      ],
      "stateMutability": "view",
      "type": "function",
      "constant": true
    },
    {
      "inputs": [
        {
          "internalType": "address",
          "name": "_memberAddress",
          "type": "address"
        }
      ],
      "name": "isMemberAdmin",
      "outputs": [
        {
          "internalType": "bool",
          "name": "",
          "type": "bool"
        }
      ],
      "stateMutability": "view",
      "type": "function",
      "constant": true
    },
    {
      "inputs": [
        {
          "internalType": "address",
          "name": "_memberAddress",
          "type": "address"
        }
      ],
      "name": "isMemberElectionManager",
      "outputs": [
        {
          "internalType": "bool",
          "name": "",
          "type": "bool"
        }
      ],
      "stateMutability": "view",
      "type": "function",
      "constant": true
    },
    {
      "inputs": [
        {
          "internalType": "address",
          "name": "_memberAddress",
          "type": "address"
        }
      ],
      "name": "isMemberUserManager",
      "outputs": [
        {
          "internalType": "bool",
          "name": "",
          "type": "bool"
        }
      ],
      "stateMutability": "view",
      "type": "function",
      "constant": true
    },
    {
      "inputs": [
        {
          "internalType": "address",
          "name": "_memberAddress",
          "type": "address"
        }
      ],
      "name": "isMemberUniversityManager",
      "outputs": [
        {
          "internalType": "bool",
          "name": "",
          "type": "bool"
        }
      ],
      "stateMutability": "view",
      "type": "function",
      "constant": true
    },
    {
      "inputs": [
        {
          "internalType": "bytes32",
          "name": "_positionId",
          "type": "bytes32"
        },
        {
          "internalType": "bytes32",
          "name": "_candidateId",
          "type": "bytes32"
        }
      ],
      "name": "voteCast",
      "outputs": [],
      "stateMutability": "nonpayable",
      "type": "function"
    }
  ],
  "bytecode": "0x60806040523480156200001157600080fd5b50604051620027483803806200274883398101604081905262000034916200008e565b6000805433600160a060020a031991821617909155600180548216600160a060020a039485161790556002805490911691909216179055620000c6565b8051600160a060020a03811681146200008957600080fd5b919050565b60008060408385031215620000a257600080fd5b620000ad8362000071565b9150620000bd6020840162000071565b90509250929050565b61267280620000d66000396000f3fe608060405234801561001057600080fd5b5060043610610379576000357c0100000000000000000000000000000000000000000000000000000000900480635e5d4320116101f0578063a989967911610121578063c9179b47116100bf578063d500958411610099578063d50095841461080a578063e6fae74f1461081b578063f6a870511461082e578063fb9b4cba1461084157600080fd5b8063c9179b47146107d1578063d00c4ecd146107e4578063d0ebdbe7146107f757600080fd5b8063ae00a809116100fb578063ae00a80914610785578063b0cf30dd14610798578063b0d72b39146107ab578063c269014b146107be57600080fd5b8063a98996791461074c578063aa9c54261461075f578063ad25e8291461077257600080fd5b80638017cec41161018e578063893d20e811610168578063893d20e8146107025780638afb84b5146107135780639cfb56d814610726578063a656234f1461073957600080fd5b80638017cec4146106bc578063828cfaa9146106dc57806386624831146106ef57600080fd5b80636e9960c3116101ca5780636e9960c314610672578063704b6c021461068357806375e58079146106965780637f67c5c4146106a957600080fd5b80635e5d43201461062c57806361a78d6e1461063f578063667ddb8c1461065257600080fd5b80632f0c163c116102ca578063472bb4321161026857806354efc2021161024257806354efc202146105e05780635925b349146105f35780635abe0afd146106065780635b248a821461061957600080fd5b8063472bb4321461059a5780634a4e8884146105ba5780634dbc4655146105cd57600080fd5b806334ffe1c9116102a457806334ffe1c9146105415780633dd9899f146105545780633e96e8681461057457806341fde2571461058757600080fd5b80632f0c163c146104e657806332c75504146104f9578063331d938c1461050c57600080fd5b806313af403511610337578063227db83511610311578063227db8351461049a57806323186600146104ad5780632a2fb3da146104c05780632b956ff7146104d357600080fd5b806313af40351461046157806314f2f3bd1461047457806315605e451461048757600080fd5b8062dc27951461037e57806302e142eb146103ae5780630a99b94c146103d15780630ca96e1b1461041a5780630ee8272c1461042d57806312a6273f1461044e575b600080fd5b61039161038c366004611cba565b610854565b604051600160a060020a0390911681526020015b60405180910390f35b6103c16103bc366004611ce8565b6108e2565b60405190151581526020016103a5565b6104186103df366004611ce8565b60048054600160a060020a0390921673ffffffffffffffffffffffffffffffffffffffff19928316811790915560038054909216179055565b005b610418610428366004611cba565b6109b3565b61044061043b366004611cba565b610a2e565b6040519081526020016103a5565b6103c161045c366004611ce8565b610ab6565b61041861046f366004611ce8565b610b70565b610440610482366004611ce8565b610c25565b6103c1610495366004611ce8565b610c71565b6104186104a8366004611db9565b610d2b565b6104406104bb366004611ce8565b610d74565b6103c16104ce366004611fdf565b610dc0565b6104406104e1366004611ce8565b610e26565b6104186104f4366004611db9565b610e72565b610418610507366004612043565b610ebb565b61051f61051a366004611cba565b610f04565b60408051825181526020808401519082015291810151908201526060016103a5565b61044061054f366004611ce8565b610fa4565b610567610562366004611ce8565b610ff0565b6040516103a59190612080565b6104186105823660046120ec565b611085565b610418610595366004612121565b6110ce565b6105ad6105a8366004611cba565b61112c565b6040516103a59190612198565b6103916105c8366004611cba565b6111b7565b6104186105db3660046121ab565b611202565b6104186105ee366004612043565b611286565b610391610601366004611cba565b6112cf565b610440610614366004611ce8565b61131a565b610391610627366004611cba565b611366565b61041861063a366004611cba565b6113b1565b61044061064d3660046120ec565b6113fb565b610665610660366004611cba565b611445565b6040516103a591906121db565b600154600160a060020a0316610391565b610418610691366004611ce8565b6114e8565b60035461039190600160a060020a031681565b6104186106b73660046120ec565b611544565b6106cf6106ca366004611cba565b61158d565b6040516103a5919061220a565b6104186106ea366004611cba565b611619565b6104186106fd366004612251565b611663565b600054600160a060020a0316610391565b6106cf610721366004611ce8565b6116b4565b610418610734366004612121565b611700565b610440610747366004611cba565b61175e565b6103c161075a366004611ce8565b6117a9565b61041861076d3660046121ab565b611863565b61051f610780366004611ce8565b6118b5565b6104406107933660046120ec565b61191d565b6105676107a6366004611cba565b611967565b6104406107b93660046120ec565b6119cc565b6104406107cc366004611ce8565b611a16565b6104186107df366004612043565b611a62565b6104186107f2366004611cba565b611af9565b610418610805366004611ce8565b611b43565b600254600160a060020a0316610391565b610665610829366004611ce8565b611c0a565b60045461039190600160a060020a031681565b61041861084f3660046120ec565b611c71565b6003546040517f46d9593800000000000000000000000000000000000000000000000000000000815260048101839052600091600160a060020a0316906346d95938906024015b602060405180830381865afa1580156108b8573d6000803e3d6000fd5b505050506040513d601f19601f820116820180604052508101906108dc9190612273565b92915050565b60035460405160e060020a633dd9899f028152600160a060020a0383811660048301526000928392911690633dd9899f90602401600060405180830381865afa158015610933573d6000803e3d6000fd5b505050506040513d6000823e601f3d908101601f1916820160405261095b91908101906122fc565b905061099c816040518060400160405280600581526020017f41444d494e000000000000000000000000000000000000000000000000000000815250610dc0565b156109aa5750600192915050565b50600092915050565b6003546040517f0efc61c500000000000000000000000000000000000000000000000000000000815260048101839052600160a060020a0390911690630efc61c5906024015b600060405180830381600087803b158015610a1357600080fd5b505af1158015610a27573d6000803e3d6000fd5b5050505050565b6003546040517f0ee8272c00000000000000000000000000000000000000000000000000000000815260048101839052600091600160a060020a031690630ee8272c906024015b602060405180830381865afa158015610a92573d6000803e3d6000fd5b505050506040513d601f19601f820116820180604052508101906108dc919061238a565b60035460405160e060020a633dd9899f028152600160a060020a0383811660048301526000928392911690633dd9899f90602401600060405180830381865afa158015610b07573d6000803e3d6000fd5b505050506040513d6000823e601f3d908101601f19168201604052610b2f91908101906122fc565b905061099c816040518060400160405280601281526020017f554e49564552534954595f4d414e414745520000000000000000000000000000815250610dc0565b600054600160a060020a03163314610ba65760405160e560020a62461bcd028152600401610b9d906123a3565b60405180910390fd5b33610bf65760405160e560020a62461bcd02815260206004820152601f60248201527f4f776e6572206e6f7420736574207468652066697273742061646472657373006044820152606401610b9d565b6000805473ffffffffffffffffffffffffffffffffffffffff1916600160a060020a0392909216919091179055565b6003546040517f14f2f3bd000000000000000000000000000000000000000000000000000000008152600160a060020a03838116600483015260009216906314f2f3bd90602401610a75565b60035460405160e060020a633dd9899f028152600160a060020a0383811660048301526000928392911690633dd9899f90602401600060405180830381865afa158015610cc2573d6000803e3d6000fd5b505050506040513d6000823e601f3d908101601f19168201604052610cea91908101906122fc565b905061099c816040518060400160405280601081526020017f454c454354494f4e5f4d414e4147455200000000000000000000000000000000815250610dc0565b6003546040517f227db835000000000000000000000000000000000000000000000000000000008152600160a060020a039091169063227db835906109f99084906004016121db565b6003546040517f23186600000000000000000000000000000000000000000000000000000000008152600160a060020a0383811660048301526000921690632318660090602401610a75565b6020820151600090815b8151811015610e1b57610ddc846113fb565b828281518110610dee57610dee612400565b602002602001015160ff1603610e09576001925050506108dc565b80610e138161242f565b915050610dca565b506000949350505050565b6003546040517f2b956ff7000000000000000000000000000000000000000000000000000000008152600160a060020a0383811660048301526000921690632b956ff790602401610a75565b6003546040517f2f0c163c000000000000000000000000000000000000000000000000000000008152600160a060020a0390911690632f0c163c906109f99084906004016121db565b6003546040517f32c75504000000000000000000000000000000000000000000000000000000008152600160a060020a03909116906332c75504906109f9908490600401612080565b604080516060810182526000808252602082018190528183015260035491517f331d938c000000000000000000000000000000000000000000000000000000008152600481018490529091600160a060020a03169063331d938c906024015b606060405180830381865afa158015610f80573d6000803e3d6000fd5b505050506040513d601f19601f820116820180604052508101906108dc919061246f565b6003546040517f34ffe1c9000000000000000000000000000000000000000000000000000000008152600160a060020a03838116600483015260009216906334ffe1c990602401610a75565b6040805160608082018352600080835260208301919091529181019190915260035460405160e060020a633dd9899f028152600160a060020a03848116600483015290911690633dd9899f906024015b600060405180830381865afa15801561105d573d6000803e3d6000fd5b505050506040513d6000823e601f3d908101601f191682016040526108dc91908101906122fc565b6003546040517f3e96e868000000000000000000000000000000000000000000000000000000008152600160a060020a0390911690633e96e868906109f99084906004016124ab565b600354604080517f41fde2570000000000000000000000000000000000000000000000000000000081528351600482015260208401516024820152908301516044820152600160a060020a03909116906341fde257906064016109f9565b6003546040517f472bb43200000000000000000000000000000000000000000000000000000000815260048101839052606091600160a060020a03169063472bb43290602401600060405180830381865afa15801561118f573d6000803e3d6000fd5b505050506040513d6000823e601f3d908101601f191682016040526108dc9190810190612551565b6003546040517f4a4e888400000000000000000000000000000000000000000000000000000000815260048101839052600091600160a060020a031690634a4e88849060240161089b565b6003546040517f4dbc465500000000000000000000000000000000000000000000000000000000815260048101849052600160a060020a03838116602483015290911690634dbc4655906044015b600060405180830381600087803b15801561126a57600080fd5b505af115801561127e573d6000803e3d6000fd5b505050505050565b6003546040517fc9179b47000000000000000000000000000000000000000000000000000000008152600160a060020a039091169063c9179b47906109f9908490600401612080565b6003546040517f5925b34900000000000000000000000000000000000000000000000000000000815260048101839052600091600160a060020a031690635925b3499060240161089b565b6003546040517f5abe0afd000000000000000000000000000000000000000000000000000000008152600160a060020a0383811660048301526000921690635abe0afd90602401610a75565b6003546040517f5b248a8200000000000000000000000000000000000000000000000000000000815260048101839052600091600160a060020a031690635b248a829060240161089b565b6003546040517f5e5d432000000000000000000000000000000000000000000000000000000000815260048101839052600160a060020a0390911690635e5d4320906024016109f9565b6003546040517f61a78d6e000000000000000000000000000000000000000000000000000000008152600091600160a060020a0316906361a78d6e90610a759085906004016124ab565b6040805160608082018352600080835260208301528183015260035491517f667ddb8c000000000000000000000000000000000000000000000000000000008152600481018490529091600160a060020a03169063667ddb8c906024015b600060405180830381865afa1580156114c0573d6000803e3d6000fd5b505050506040513d6000823e601f3d908101601f191682016040526108dc9190810190612586565b600054600160a060020a031633146115155760405160e560020a62461bcd028152600401610b9d906123a3565b6001805473ffffffffffffffffffffffffffffffffffffffff1916600160a060020a0392909216919091179055565b6003546040517f7f67c5c4000000000000000000000000000000000000000000000000000000008152600160a060020a0390911690637f67c5c4906109f99084906004016124ab565b6003546040517f8017cec400000000000000000000000000000000000000000000000000000000815260048101839052606091600160a060020a031690638017cec4906024015b600060405180830381865afa1580156115f1573d6000803e3d6000fd5b505050506040513d6000823e601f3d908101601f191682016040526108dc9190810190612607565b6003546040517fbe1b97a200000000000000000000000000000000000000000000000000000000815260048101839052600160a060020a039091169063be1b97a2906024016109f9565b6003546040517f866248310000000000000000000000000000000000000000000000000000000081526004810184905260248101839052600160a060020a0390911690638662483190604401611250565b6003546040517f8afb84b5000000000000000000000000000000000000000000000000000000008152600160a060020a0383811660048301526060921690638afb84b5906024016115d4565b600354604080517f9cfb56d80000000000000000000000000000000000000000000000000000000081528351600482015260208401516024820152908301516044820152600160a060020a0390911690639cfb56d8906064016109f9565b6003546040517fa656234f00000000000000000000000000000000000000000000000000000000815260048101839052600091600160a060020a03169063a656234f90602401610a75565b60035460405160e060020a633dd9899f028152600160a060020a0383811660048301526000928392911690633dd9899f90602401600060405180830381865afa1580156117fa573d6000803e3d6000fd5b505050506040513d6000823e601f3d908101601f1916820160405261182291908101906122fc565b905061099c816040518060400160405280600c81526020017f555345525f4d414e414745520000000000000000000000000000000000000000815250610dc0565b6003546040517faa9c542600000000000000000000000000000000000000000000000000000000815260048101849052600160a060020a0383811660248301529091169063aa9c542690604401611250565b60408051606081018252600080825260208201819052918101919091526003546040517fad25e829000000000000000000000000000000000000000000000000000000008152600160a060020a0384811660048301529091169063ad25e82990602401610f63565b6003546040517fae00a809000000000000000000000000000000000000000000000000000000008152600091600160a060020a03169063ae00a80990610a759085906004016124ab565b6040805160608082018352600080835260208301919091528183015260035491517fb0cf30dd000000000000000000000000000000000000000000000000000000008152600481018490529091600160a060020a03169063b0cf30dd90602401611040565b6003546040517fb0d72b39000000000000000000000000000000000000000000000000000000008152600091600160a060020a03169063b0d72b3990610a759085906004016124ab565b6003546040517fc269014b000000000000000000000000000000000000000000000000000000008152600160a060020a038381166004830152600092169063c269014b90602401610a75565b611aa06040518060400160405280600881526020017f4449524543544f520000000000000000000000000000000000000000000000008152506119cc565b816040015160ff1603611286576003546040517fc9179b47000000000000000000000000000000000000000000000000000000008152600160a060020a039091169063c9179b47906109f9908490600401612080565b50565b6003546040517f82bb2a5600000000000000000000000000000000000000000000000000000000815260048101839052600160a060020a03909116906382bb2a56906024016109f9565b600054600160a060020a0316331480611b665750600154600160a060020a031633145b611bdb5760405160e560020a62461bcd02815260206004820152602c60248201527f4f6e6c79206f776e657220616e642061646d696e2063616e20706572666f726d60448201527f207468697320616374696f6e00000000000000000000000000000000000000006064820152608401610b9d565b6002805473ffffffffffffffffffffffffffffffffffffffff1916600160a060020a0392909216919091179055565b604080516060808201835260008083526020830152918101919091526003546040517fe6fae74f000000000000000000000000000000000000000000000000000000008152600160a060020a0384811660048301529091169063e6fae74f906024016114a3565b6003546040517ffb9b4cba000000000000000000000000000000000000000000000000000000008152600160a060020a039091169063fb9b4cba906109f99084906004016124ab565b600060208284031215611ccc57600080fd5b5035919050565b600160a060020a0381168114611af657600080fd5b600060208284031215611cfa57600080fd5b8135611d0581611cd3565b9392505050565b7f4e487b7100000000000000000000000000000000000000000000000000000000600052604160045260246000fd5b6040516060810167ffffffffffffffff81118282101715611d5e57611d5e611d0c565b60405290565b604051601f8201601f1916810167ffffffffffffffff81118282101715611d8d57611d8d611d0c565b604052919050565b600067ffffffffffffffff821115611daf57611daf611d0c565b5060209081020190565b60006020808385031215611dcc57600080fd5b823567ffffffffffffffff80821115611de457600080fd5b9084019060608287031215611df857600080fd5b611e00611d3b565b823581528383013584820152604083013582811115611e1e57600080fd5b80840193505086601f840112611e3357600080fd5b82359150611e48611e4383611d95565b611d64565b82815291840283018401918481019088841115611e6457600080fd5b938501935b83851015611e8257843582529385019390850190611e69565b6040830152509695505050505050565b60ff81168114611af657600080fd5b8035611eac81611e92565b919050565b600060608284031215611ec357600080fd5b611ecb611d3b565b90508135815260208083013567ffffffffffffffff811115611eec57600080fd5b8301601f81018513611efd57600080fd5b8035611f0b611e4382611d95565b81815290830282018301908381019087831115611f2757600080fd5b928401925b82841015611f4e578335611f3f81611e92565b82529284019290840190611f2c565b80858701525050505050611f6460408301611ea1565b604082015292915050565b600082601f830112611f8057600080fd5b813567ffffffffffffffff811115611f9a57611f9a611d0c565b611fad601f8201601f1916602001611d64565b818152846020838601011115611fc257600080fd5b816020850160208301376000918101602001919091529392505050565b60008060408385031215611ff257600080fd5b823567ffffffffffffffff8082111561200a57600080fd5b61201686838701611eb1565b9350602085013591508082111561202c57600080fd5b5061203985828601611f6f565b9150509250929050565b60006020828403121561205557600080fd5b813567ffffffffffffffff81111561206c57600080fd5b61207884828501611eb1565b949350505050565b6020808252825182820152828101516060604084015280516080840181905260009291820190839060a08601905b808310156120d157835160ff1682529284019260019290920191908401906120ae565b5060ff60408801511660608701528094505050505092915050565b6000602082840312156120fe57600080fd5b813567ffffffffffffffff81111561211557600080fd5b61207884828501611f6f565b60006060828403121561213357600080fd5b61213b611d3b565b8235815260208301356020820152604083013560408201528091505092915050565b600081518084526020808501945080840160005b8381101561218d57815187529582019590820190600101612171565b509495945050505050565b602081526000611d05602083018461215d565b600080604083850312156121be57600080fd5b8235915060208301356121d081611cd3565b809150509250929050565b60208152815160208201526020820151604082015260006040830151606080840152612078608084018261215d565b6020808252825182820181905260009190848201906040850190845b8181101561224557835160ff1683529284019291840191600101612226565b50909695505050505050565b6000806040838503121561226457600080fd5b50508035926020909101359150565b60006020828403121561228557600080fd5b8151611d0581611cd3565b600082601f8301126122a157600080fd5b815160206122b1611e4383611d95565b828152918102840181019181810190868411156122cd57600080fd5b8286015b848110156122f15780516122e481611e92565b83529183019183016122d1565b509695505050505050565b60006020828403121561230e57600080fd5b815167ffffffffffffffff8082111561232657600080fd5b908301906060828603121561233a57600080fd5b612342611d3b565b8251815260208301518281111561235857600080fd5b61236487828601612290565b6020830152506040830151925061237a83611e92565b6040810192909252509392505050565b60006020828403121561239c57600080fd5b5051919050565b60208082526022908201527f4f6e6c79206f776e65722063616e20706572666f726d2074686973206163746960408201527f6f6e000000000000000000000000000000000000000000000000000000000000606082015260800190565b7f4e487b7100000000000000000000000000000000000000000000000000000000600052603260045260246000fd5b600060018201612468577f4e487b7100000000000000000000000000000000000000000000000000000000600052601160045260246000fd5b5060010190565b60006060828403121561248157600080fd5b612489611d3b565b8251815260208301516020820152604083015160408201528091505092915050565b600060208083528351808285015260005b818110156124d8578581018301518582016040015282016124bc565b506000604082860101526040601f19601f8301168501019250505092915050565b600082601f83011261250a57600080fd5b8151602061251a611e4383611d95565b8281529181028401810191818101908684111561253657600080fd5b8286015b848110156122f1578051835291830191830161253a565b60006020828403121561256357600080fd5b815167ffffffffffffffff81111561257a57600080fd5b612078848285016124f9565b60006020828403121561259857600080fd5b815167ffffffffffffffff808211156125b057600080fd5b90830190606082860312156125c457600080fd5b6125cc611d3b565b82518152602083015160208201526040830151828111156125ec57600080fd5b6125f8878286016124f9565b60408301525095945050505050565b60006020828403121561261957600080fd5b815167ffffffffffffffff81111561263057600080fd5b6120788482850161229056fea2646970667358221220940b4f50d7201f820a43eae51d1371ec3095bad969d4231f96e5f770a5801f3d64736f6c63430008100033",
  "immutableReferences": {},
  "source": "/**\n@author:- Anurag\n@email:- anurag@c3ihub.iitk.ac.in\n\nUserManager contract is used to manage mapping functionality for id to voter and candidate address, and to manage election verifier, approver, member.\nThe contract owner and admin have the authority to update voter, candidate, verifier, approver, member.\n\n*/\n\n// SPDX-License-Identifier: UNLICENSED\npragma solidity ^0.8.16;\n\nimport \"./DataTypes.sol\";\nimport \"./Enums.sol\";\nimport \"./VotingCommon.sol\";\nimport \"./UserStorage.sol\";\n\ncontract UserManager is VotingCommon{\n\n    event VoterAdded(bytes32 voterId);\n    \n    \n    // constructor to set the initial value of the contract\n    constructor(address _admin, address _manager) VotingCommon(_admin, _manager){}\n\n    // Data layer\n    UserStorage public userStorage;\n    address public userStorageAddress;\n\n    function loadUserStorage(address _userStorageAddress) public {\n        userStorageAddress = _userStorageAddress;\n        userStorage = UserStorage(userStorageAddress);\n    }\n\n    // function to add designation value\n    function addDesignation(string memory _designation) public {\n        userStorage.addDesignation(_designation);\n    }\n\n    \n    // function to add role value\n    function addRole(string memory _role) public {\n        userStorage.addRole(_role);\n    }\n\n    // function to add posiiton value\n    function addPosition(string memory _position) public {\n        userStorage.addPosition(_position);\n    }\n\n    // function to get designation value\n    function getDesignationValue(string memory _designation) public view returns(uint) {\n        return userStorage.getDesignationValue(_designation);\n    }\n    \n    // function to get role value in int\n    function getRoleValue(string memory _role) public view returns(uint) {\n        return userStorage.getRoleValue(_role);\n    }\n\n    // function to get position value in int\n    function getPositionValue(string memory _position) public view returns(uint) {\n        return userStorage.getPositionValue(_position);\n    }\n\n    \n    /*\n        USER OPERATIONS\n    */\n\n    // function for add user detail\n    function addUser(bytes32 _userId, address _userAddress) public {\n        userStorage.addUser(_userId, _userAddress);\n    }\n\n    // function for update user detail\n    function updateUser(bytes32 _userId, address _userAddress) public {\n        userStorage.updateUser(_userId, _userAddress);\n    }\n\n    // function for delete user detail\n    function deleteUser(bytes32 _userId) public {\n        userStorage.deleteUser(_userId);\n    }\n\n    // function for get user detail\n    function getUserAddress(bytes32 _userId) public view returns(address) {\n        return userStorage.getUserAddress(_userId);\n    }\n\n    // function for delete user detail\n    function getUserId(address _userAddress) public view returns(bytes32) {\n        return userStorage.getUserId(_userAddress);\n    }\n\n\n\n    /*\n        VOTER OPERATIONS\n    */\n    \n    \n    // function for add voter detail\n    function addVoter(Voter memory _voter) public{\n        userStorage.addVoter(_voter);\n    }\n\n    // function for update voter detail like: address\n    function updateVoter(Voter memory _voter) public{\n        userStorage.updateVoter(_voter);\n    }\n\n    // function for delete voter detail like: address\n    function deletedVoter(bytes32 _voterId) public{\n        userStorage.deleteVoter(_voterId);\n    }\n\n    // function to get voter id\n    function getVoterId(address _voterAddress) public view returns(bytes32){\n        return userStorage.getVoterId(_voterAddress);\n    }\n\n    // function to get voter address\n    function getVoterAddress(bytes32 _voterId) public view returns(address){\n        return userStorage.getVoterAddress(_voterId);\n    }\n\n    // function to get voter position status\n    function getVoterPositionStatus(bytes32 _voterId) public view returns(bytes32[] memory){\n        return userStorage.getVoterPositionStatus(_voterId);\n    }\n\n    // function to get voter details\n    function getVoterDetail(bytes32 _voterId) public view returns (Voter memory){\n        return userStorage.getVoterDetail(_voterId);\n    }\n\n    // function to get voter details from voter address\n    function getVoterDetailByAddress(address _voterAddress) public view returns (Voter memory) {\n        return userStorage.getVoterDetailByAddress(_voterAddress);\n    }\n\n\n\n\n    /*\n        CANDIDATE OPERATIONS\n    */\n\n    // function to add candidate\n    function addCandidate(Candidate memory _candidate) public {\n        userStorage.addCandidate(_candidate);\n    }\n\n    // function for update candidate\n    function updateCandidate(Candidate memory _candidate) public {\n        userStorage.updateCandidate(_candidate);\n    }\n\n    // function for delete candidate detail like: address\n    function deletedCandidate(bytes32 _candidateId) public {\n        userStorage.deleteCandidate(_candidateId);\n    }\n\n    // function to get candidate id\n    function getCandidateId(address _candidateAddress) public view returns (bytes32){\n        return userStorage.getCandidateId(_candidateAddress);\n    }\n\n    // function to get candidate address\n    function getcandidateAddress(bytes32 _candidateId) public view returns (address){\n        return userStorage.getCandidateAddress(_candidateId);\n    }\n\n    // function to get candidate details from id\n    function getCandidateDetail(bytes32 _candidateId) public view returns (Candidate memory){\n        return userStorage.getCandidateDetail(_candidateId);\n    }\n\n    // function to get candidate detail from address\n    function getCandidateByAddress(address _candidateAddress) public view returns (Candidate memory){\n        return userStorage.getCandidateByAddress(_candidateAddress);\n    }\n\n    // function to get candidate vote count\n    function getCandidateVotes(bytes32 _candidateId) public view returns (uint256){\n        return userStorage.getCandidateVotes(_candidateId);\n    }\n\n    // function to get candidate vote count by address\n    function getCandidateVotesByAddress(address _candidateAddress) public view returns (uint256){\n        return userStorage.getCandidateVotesByAddress(_candidateAddress);\n    }\n\n    // function to get candidate position by id\n    function getCandidatePosition(bytes32 _candidateId) public view returns (bytes32){\n        return userStorage.getCandidatePosition(_candidateId);\n    }\n\n    // function to get candidate position by address\n    function getCandidatePositionByAddress(address _candidateAddress) public view returns (bytes32) {\n        return userStorage.getCandidatePositionByAddress(_candidateAddress);\n    }\n\n\n\n\n    /*\n        ELECTION OFFICER MEMBER OPERATIONS\n    */\n\n\n    // function to add member\n    function addMember(Member memory _member) public {\n        if(_member.designation == getDesignationValue(\"DIRECTOR\")){\n            userStorage.addMember(_member);\n        } else {\n            userStorage.addMember(_member);\n        }\n    }\n\n    // Function to add election director\n    function addDirector(Member memory _member) public {\n        userStorage.addMember(_member);\n    }\n\n    // function for update member detail\n    function updateMember(Member memory _member) public {\n        userStorage.updateMember(_member);\n    }\n\n    // function for delete member \n    function deletedMember(bytes32 _memberId) public {\n        userStorage.deleteMember(_memberId);\n    }\n\n    // function to get member id by address\n    function getMemberId(address _memberAddress) public view returns (bytes32){\n        return userStorage.getMemberId(_memberAddress);\n    }\n\n    // function to get member address\n    function getMemberAddress(bytes32 _memberId) public view returns (address){\n        return userStorage.getMemberAddress(_memberId);\n    }\n\n    // function to get member details\n    function getMemberDetail(bytes32 _memberId) public view returns(Member memory){\n        return userStorage.getMemberDetail(_memberId);\n    }\n\n    // function to get member details by address\n    function getMemberByAddress(address _memberAddress) public view returns(Member memory){\n        return userStorage.getMemberByAddress(_memberAddress);\n    }\n    \n    // function to get member roles\n    function getMemberRoles(bytes32 _memberId) public view returns (uint8[] memory){\n        return userStorage.getMemberRoles(_memberId);\n    }\n\n    // function to get member roles by address\n    function getMemberRolesByAddress(address _memberAddress) public view returns (uint8[] memory) {\n        return userStorage.getMemberRolesByAddress(_memberAddress);\n    } \n\n\n\n    /*\n        OTHER OPERATIONS\n    */\n\n\n    // function to check if member have specific role or not\n    function isMemberHasRole(Member memory _member, string memory roleName) public view returns(bool){\n        uint8[] memory getAllRoles=_member.roles;\n        for (uint256 i = 0; i < getAllRoles.length; i++) {\n        if (getAllRoles[i] == getRoleValue(roleName)) {\n            return true; \n            }\n        }    \n        return false;\n    }\n\n    // Function to check if member role is Super Admin\n    function isMemberAdmin(address _memberAddress) public view returns(bool){\n        Member memory member = userStorage.getMemberByAddress(_memberAddress);\n        if(isMemberHasRole(member, \"ADMIN\")){\n            return true;\n        }\n        return false;\n    }\n\n    // Function to check if member role is Election Manager\n    function isMemberElectionManager(address _memberAddress) public view returns(bool){\n        Member memory member = userStorage.getMemberByAddress(_memberAddress);\n        if(isMemberHasRole(member, \"ELECTION_MANAGER\")){\n            return true;\n        }\n        return false;\n    }\n\n    // function to check if member role is User Manager\n    function isMemberUserManager(address _memberAddress) public view returns(bool) {\n        Member memory member = userStorage.getMemberByAddress(_memberAddress);\n        if(isMemberHasRole(member, \"USER_MANAGER\")){\n            return true;\n        }\n        return false;\n    }\n\n    // function to check if member role is University Manager\n    function isMemberUniversityManager(address _memberAddress) public view returns(bool) {\n        Member memory member = userStorage.getMemberByAddress(_memberAddress);\n        if(isMemberHasRole(member, \"UNIVERSITY_MANAGER\")){\n            return true;\n        }\n        return false;\n    }\n\n    function voteCast(bytes32 _positionId, bytes32 _candidateId) external {\n        userStorage.voteCast(_positionId, _candidateId);\n    }\n\n}",
  "sourcePath": "/home/anurag/Documents/iitk/c3i/evoting/evoting-contract/smart_contract/contracts/UserManager.sol",
  "compiler": {
    "name": "solc",
    "version": "0.8.16+commit.07a7930e.Emscripten.clang"
  },
  "schemaVersion": "3.4.14",
  "updatedAt": "2023-09-20T07:04:57.210Z",
  "networkType": "ethereum",
  "devdoc": {
    "kind": "dev",
    "methods": {},
    "version": 1
  },
  "userdoc": {
    "kind": "user",
    "methods": {},
    "version": 1
  }
}