{
    "contractName": "VotingStorage",
    "abi": [
        {
            "inputs": [
                {
                    "internalType": "address",
                    "name": "_admin",
                    "type": "address"
                },
                {
                    "internalType": "address",
                    "name": "_manager",
                    "type": "address"
                }
            ],
            "stateMutability": "nonpayable",
            "type": "constructor"
        },
        {
            "anonymous": false,
            "inputs": [
                {
                    "components": [
                        {
                            "internalType": "bytes32",
                            "name": "electionId",
                            "type": "bytes32"
                        },
                        {
                            "internalType": "bytes32",
                            "name": "positionId",
                            "type": "bytes32"
                        },
                        {
                            "internalType": "uint8",
                            "name": "position",
                            "type": "uint8"
                        },
                        {
                            "internalType": "bytes32[]",
                            "name": "candidatesId",
                            "type": "bytes32[]"
                        },
                        {
                            "internalType": "uint256",
                            "name": "maxVotes",
                            "type": "uint256"
                        },
                        {
                            "internalType": "uint8",
                            "name": "totalValidators",
                            "type": "uint8"
                        },
                        {
                            "internalType": "address[]",
                            "name": "validatorsAddress",
                            "type": "address[]"
                        }
                    ],
                    "indexed": false,
                    "internalType": "struct PositionDetail",
                    "name": "position",
                    "type": "tuple"
                },
                {
                    "indexed": false,
                    "internalType": "bytes32",
                    "name": "candidateId",
                    "type": "bytes32"
                }
            ],
            "name": "CandidateAddedInPosition",
            "type": "event"
        },
        {
            "anonymous": false,
            "inputs": [
                {
                    "components": [
                        {
                            "internalType": "bytes32",
                            "name": "electionId",
                            "type": "bytes32"
                        },
                        {
                            "internalType": "bytes32",
                            "name": "positionId",
                            "type": "bytes32"
                        },
                        {
                            "internalType": "uint8",
                            "name": "position",
                            "type": "uint8"
                        },
                        {
                            "internalType": "bytes32[]",
                            "name": "candidatesId",
                            "type": "bytes32[]"
                        },
                        {
                            "internalType": "uint256",
                            "name": "maxVotes",
                            "type": "uint256"
                        },
                        {
                            "internalType": "uint8",
                            "name": "totalValidators",
                            "type": "uint8"
                        },
                        {
                            "internalType": "address[]",
                            "name": "validatorsAddress",
                            "type": "address[]"
                        }
                    ],
                    "indexed": false,
                    "internalType": "struct PositionDetail",
                    "name": "position",
                    "type": "tuple"
                },
                {
                    "indexed": false,
                    "internalType": "bytes32",
                    "name": "candidateId",
                    "type": "bytes32"
                }
            ],
            "name": "CandidateUpdatedInPosition",
            "type": "event"
        },
        {
            "anonymous": false,
            "inputs": [
                {
                    "components": [
                        {
                            "internalType": "bytes32",
                            "name": "universityId",
                            "type": "bytes32"
                        },
                        {
                            "internalType": "bytes32",
                            "name": "electionId",
                            "type": "bytes32"
                        },
                        {
                            "internalType": "uint256",
                            "name": "startingTime",
                            "type": "uint256"
                        },
                        {
                            "internalType": "uint256",
                            "name": "endingTime",
                            "type": "uint256"
                        },
                        {
                            "internalType": "bytes32[]",
                            "name": "positionsDetailsId",
                            "type": "bytes32[]"
                        }
                    ],
                    "indexed": false,
                    "internalType": "struct Election",
                    "name": "election",
                    "type": "tuple"
                }
            ],
            "name": "ElectionAdded",
            "type": "event"
        },
        {
            "anonymous": false,
            "inputs": [
                {
                    "indexed": false,
                    "internalType": "bytes32",
                    "name": "electionId",
                    "type": "bytes32"
                }
            ],
            "name": "ElectionDeleted",
            "type": "event"
        },
        {
            "anonymous": false,
            "inputs": [
                {
                    "components": [
                        {
                            "internalType": "bytes32",
                            "name": "universityId",
                            "type": "bytes32"
                        },
                        {
                            "internalType": "bytes32",
                            "name": "electionId",
                            "type": "bytes32"
                        },
                        {
                            "internalType": "uint256",
                            "name": "startingTime",
                            "type": "uint256"
                        },
                        {
                            "internalType": "uint256",
                            "name": "endingTime",
                            "type": "uint256"
                        },
                        {
                            "internalType": "bytes32[]",
                            "name": "positionsDetailsId",
                            "type": "bytes32[]"
                        }
                    ],
                    "indexed": false,
                    "internalType": "struct Election",
                    "name": "election",
                    "type": "tuple"
                }
            ],
            "name": "ElectionUpdated",
            "type": "event"
        },
        {
            "anonymous": false,
            "inputs": [
                {
                    "components": [
                        {
                            "internalType": "bytes32",
                            "name": "electionId",
                            "type": "bytes32"
                        },
                        {
                            "internalType": "bytes32",
                            "name": "positionId",
                            "type": "bytes32"
                        },
                        {
                            "internalType": "uint8",
                            "name": "position",
                            "type": "uint8"
                        },
                        {
                            "internalType": "bytes32[]",
                            "name": "candidatesId",
                            "type": "bytes32[]"
                        },
                        {
                            "internalType": "uint256",
                            "name": "maxVotes",
                            "type": "uint256"
                        },
                        {
                            "internalType": "uint8",
                            "name": "totalValidators",
                            "type": "uint8"
                        },
                        {
                            "internalType": "address[]",
                            "name": "validatorsAddress",
                            "type": "address[]"
                        }
                    ],
                    "indexed": false,
                    "internalType": "struct PositionDetail",
                    "name": "position",
                    "type": "tuple"
                }
            ],
            "name": "PositionAdded",
            "type": "event"
        },
        {
            "anonymous": false,
            "inputs": [
                {
                    "indexed": false,
                    "internalType": "bytes32",
                    "name": "PositionId",
                    "type": "bytes32"
                }
            ],
            "name": "PositionDeleted",
            "type": "event"
        },
        {
            "anonymous": false,
            "inputs": [
                {
                    "components": [
                        {
                            "internalType": "bytes32",
                            "name": "electionId",
                            "type": "bytes32"
                        },
                        {
                            "internalType": "bytes32",
                            "name": "positionId",
                            "type": "bytes32"
                        },
                        {
                            "internalType": "uint8",
                            "name": "position",
                            "type": "uint8"
                        },
                        {
                            "internalType": "bytes32[]",
                            "name": "candidatesId",
                            "type": "bytes32[]"
                        },
                        {
                            "internalType": "uint256",
                            "name": "maxVotes",
                            "type": "uint256"
                        },
                        {
                            "internalType": "uint8",
                            "name": "totalValidators",
                            "type": "uint8"
                        },
                        {
                            "internalType": "address[]",
                            "name": "validatorsAddress",
                            "type": "address[]"
                        }
                    ],
                    "indexed": false,
                    "internalType": "struct PositionDetail",
                    "name": "position",
                    "type": "tuple"
                }
            ],
            "name": "PositionUpdated",
            "type": "event"
        },
        {
            "anonymous": false,
            "inputs": [
                {
                    "indexed": true,
                    "internalType": "bytes32",
                    "name": "positionId",
                    "type": "bytes32"
                },
                {
                    "indexed": true,
                    "internalType": "bytes32",
                    "name": "winnerId",
                    "type": "bytes32"
                }
            ],
            "name": "PositionWinner",
            "type": "event"
        },
        {
            "anonymous": false,
            "inputs": [
                {
                    "components": [
                        {
                            "internalType": "bytes32",
                            "name": "universityId",
                            "type": "bytes32"
                        },
                        {
                            "internalType": "bytes32[]",
                            "name": "electionIds",
                            "type": "bytes32[]"
                        },
                        {
                            "internalType": "address",
                            "name": "deployedAddress",
                            "type": "address"
                        }
                    ],
                    "indexed": false,
                    "internalType": "struct University",
                    "name": "university",
                    "type": "tuple"
                }
            ],
            "name": "UniversityAdded",
            "type": "event"
        },
        {
            "anonymous": false,
            "inputs": [
                {
                    "components": [
                        {
                            "internalType": "bytes32",
                            "name": "universityId",
                            "type": "bytes32"
                        },
                        {
                            "internalType": "bytes32[]",
                            "name": "electionIds",
                            "type": "bytes32[]"
                        },
                        {
                            "internalType": "address",
                            "name": "deployedAddress",
                            "type": "address"
                        }
                    ],
                    "indexed": false,
                    "internalType": "struct University",
                    "name": "university",
                    "type": "tuple"
                }
            ],
            "name": "UniversityUpdated",
            "type": "event"
        },
        {
            "anonymous": false,
            "inputs": [
                {
                    "indexed": false,
                    "internalType": "bytes32",
                    "name": "voterId",
                    "type": "bytes32"
                },
                {
                    "indexed": false,
                    "internalType": "bytes32",
                    "name": "positionId",
                    "type": "bytes32"
                }
            ],
            "name": "VoteCast",
            "type": "event"
        },
        {
            "inputs": [
                {
                    "internalType": "bytes32",
                    "name": "",
                    "type": "bytes32"
                }
            ],
            "name": "electionMap",
            "outputs": [
                {
                    "internalType": "bytes32",
                    "name": "universityId",
                    "type": "bytes32"
                },
                {
                    "internalType": "bytes32",
                    "name": "electionId",
                    "type": "bytes32"
                },
                {
                    "internalType": "uint256",
                    "name": "startingTime",
                    "type": "uint256"
                },
                {
                    "internalType": "uint256",
                    "name": "endingTime",
                    "type": "uint256"
                }
            ],
            "stateMutability": "view",
            "type": "function"
        },
        {
            "inputs": [],
            "name": "getAdmin",
            "outputs": [
                {
                    "internalType": "address",
                    "name": "",
                    "type": "address"
                }
            ],
            "stateMutability": "view",
            "type": "function"
        },
        {
            "inputs": [],
            "name": "getManager",
            "outputs": [
                {
                    "internalType": "address",
                    "name": "",
                    "type": "address"
                }
            ],
            "stateMutability": "view",
            "type": "function"
        },
        {
            "inputs": [],
            "name": "getOwner",
            "outputs": [
                {
                    "internalType": "address",
                    "name": "",
                    "type": "address"
                }
            ],
            "stateMutability": "view",
            "type": "function"
        },
        {
            "inputs": [
                {
                    "internalType": "bytes32",
                    "name": "",
                    "type": "bytes32"
                }
            ],
            "name": "positionMap",
            "outputs": [
                {
                    "internalType": "bytes32",
                    "name": "electionId",
                    "type": "bytes32"
                },
                {
                    "internalType": "bytes32",
                    "name": "positionId",
                    "type": "bytes32"
                },
                {
                    "internalType": "uint8",
                    "name": "position",
                    "type": "uint8"
                },
                {
                    "internalType": "uint256",
                    "name": "maxVotes",
                    "type": "uint256"
                },
                {
                    "internalType": "uint8",
                    "name": "totalValidators",
                    "type": "uint8"
                }
            ],
            "stateMutability": "view",
            "type": "function"
        },
        {
            "inputs": [
                {
                    "internalType": "address",
                    "name": "_admin",
                    "type": "address"
                }
            ],
            "name": "setAdmin",
            "outputs": [],
            "stateMutability": "nonpayable",
            "type": "function"
        },
        {
            "inputs": [
                {
                    "internalType": "address",
                    "name": "_manager",
                    "type": "address"
                }
            ],
            "name": "setManager",
            "outputs": [],
            "stateMutability": "nonpayable",
            "type": "function"
        },
        {
            "inputs": [
                {
                    "internalType": "address",
                    "name": "_owner",
                    "type": "address"
                }
            ],
            "name": "setOwner",
            "outputs": [],
            "stateMutability": "nonpayable",
            "type": "function"
        },
        {
            "inputs": [
                {
                    "internalType": "bytes32",
                    "name": "",
                    "type": "bytes32"
                }
            ],
            "name": "universityMap",
            "outputs": [
                {
                    "internalType": "bytes32",
                    "name": "universityId",
                    "type": "bytes32"
                },
                {
                    "internalType": "address",
                    "name": "deployedAddress",
                    "type": "address"
                }
            ],
            "stateMutability": "view",
            "type": "function"
        },
        {
            "inputs": [],
            "name": "userManager",
            "outputs": [
                {
                    "internalType": "contract UserManager",
                    "name": "",
                    "type": "address"
                }
            ],
            "stateMutability": "view",
            "type": "function"
        },
        {
            "inputs": [],
            "name": "userManagerAddress",
            "outputs": [
                {
                    "internalType": "address",
                    "name": "",
                    "type": "address"
                }
            ],
            "stateMutability": "view",
            "type": "function"
        },
        {
            "inputs": [
                {
                    "internalType": "address",
                    "name": "_userManagerAddress",
                    "type": "address"
                }
            ],
            "name": "loaduserManager",
            "outputs": [],
            "stateMutability": "nonpayable",
            "type": "function"
        },
        {
            "inputs": [
                {
                    "components": [
                        {
                            "internalType": "bytes32",
                            "name": "universityId",
                            "type": "bytes32"
                        },
                        {
                            "internalType": "bytes32[]",
                            "name": "electionIds",
                            "type": "bytes32[]"
                        },
                        {
                            "internalType": "address",
                            "name": "deployedAddress",
                            "type": "address"
                        }
                    ],
                    "internalType": "struct University",
                    "name": "_university",
                    "type": "tuple"
                }
            ],
            "name": "addUniversity",
            "outputs": [],
            "stateMutability": "nonpayable",
            "type": "function"
        },
        {
            "inputs": [
                {
                    "components": [
                        {
                            "internalType": "bytes32",
                            "name": "universityId",
                            "type": "bytes32"
                        },
                        {
                            "internalType": "bytes32[]",
                            "name": "electionIds",
                            "type": "bytes32[]"
                        },
                        {
                            "internalType": "address",
                            "name": "deployedAddress",
                            "type": "address"
                        }
                    ],
                    "internalType": "struct University",
                    "name": "_university",
                    "type": "tuple"
                }
            ],
            "name": "updateUniversity",
            "outputs": [],
            "stateMutability": "nonpayable",
            "type": "function"
        },
        {
            "inputs": [
                {
                    "internalType": "bytes32",
                    "name": "_universityId",
                    "type": "bytes32"
                }
            ],
            "name": "getUniversityDetail",
            "outputs": [
                {
                    "components": [
                        {
                            "internalType": "bytes32",
                            "name": "universityId",
                            "type": "bytes32"
                        },
                        {
                            "internalType": "bytes32[]",
                            "name": "electionIds",
                            "type": "bytes32[]"
                        },
                        {
                            "internalType": "address",
                            "name": "deployedAddress",
                            "type": "address"
                        }
                    ],
                    "internalType": "struct University",
                    "name": "",
                    "type": "tuple"
                }
            ],
            "stateMutability": "view",
            "type": "function"
        },
        {
            "inputs": [
                {
                    "components": [
                        {
                            "internalType": "bytes32",
                            "name": "universityId",
                            "type": "bytes32"
                        },
                        {
                            "internalType": "bytes32",
                            "name": "electionId",
                            "type": "bytes32"
                        },
                        {
                            "internalType": "uint256",
                            "name": "startingTime",
                            "type": "uint256"
                        },
                        {
                            "internalType": "uint256",
                            "name": "endingTime",
                            "type": "uint256"
                        },
                        {
                            "internalType": "bytes32[]",
                            "name": "positionsDetailsId",
                            "type": "bytes32[]"
                        }
                    ],
                    "internalType": "struct Election",
                    "name": "_election",
                    "type": "tuple"
                }
            ],
            "name": "addElection",
            "outputs": [],
            "stateMutability": "nonpayable",
            "type": "function"
        },
        {
            "inputs": [
                {
                    "components": [
                        {
                            "internalType": "bytes32",
                            "name": "universityId",
                            "type": "bytes32"
                        },
                        {
                            "internalType": "bytes32",
                            "name": "electionId",
                            "type": "bytes32"
                        },
                        {
                            "internalType": "uint256",
                            "name": "startingTime",
                            "type": "uint256"
                        },
                        {
                            "internalType": "uint256",
                            "name": "endingTime",
                            "type": "uint256"
                        },
                        {
                            "internalType": "bytes32[]",
                            "name": "positionsDetailsId",
                            "type": "bytes32[]"
                        }
                    ],
                    "internalType": "struct Election",
                    "name": "_election",
                    "type": "tuple"
                }
            ],
            "name": "updateElection",
            "outputs": [],
            "stateMutability": "nonpayable",
            "type": "function"
        },
        {
            "inputs": [
                {
                    "internalType": "bytes32",
                    "name": "_electionId",
                    "type": "bytes32"
                }
            ],
            "name": "deleteElection",
            "outputs": [],
            "stateMutability": "nonpayable",
            "type": "function"
        },
        {
            "inputs": [
                {
                    "internalType": "bytes32",
                    "name": "_electionId",
                    "type": "bytes32"
                }
            ],
            "name": "getElectionDetail",
            "outputs": [
                {
                    "components": [
                        {
                            "internalType": "bytes32",
                            "name": "universityId",
                            "type": "bytes32"
                        },
                        {
                            "internalType": "bytes32",
                            "name": "electionId",
                            "type": "bytes32"
                        },
                        {
                            "internalType": "uint256",
                            "name": "startingTime",
                            "type": "uint256"
                        },
                        {
                            "internalType": "uint256",
                            "name": "endingTime",
                            "type": "uint256"
                        },
                        {
                            "internalType": "bytes32[]",
                            "name": "positionsDetailsId",
                            "type": "bytes32[]"
                        }
                    ],
                    "internalType": "struct Election",
                    "name": "",
                    "type": "tuple"
                }
            ],
            "stateMutability": "view",
            "type": "function"
        },
        {
            "inputs": [
                {
                    "internalType": "bytes32",
                    "name": "_electionId",
                    "type": "bytes32"
                }
            ],
            "name": "getElectionPositionDetail",
            "outputs": [
                {
                    "internalType": "bytes32[]",
                    "name": "",
                    "type": "bytes32[]"
                }
            ],
            "stateMutability": "view",
            "type": "function"
        },
        {
            "inputs": [
                {
                    "internalType": "bytes32",
                    "name": "_electionId",
                    "type": "bytes32"
                }
            ],
            "name": "getElectionStartingTime",
            "outputs": [
                {
                    "internalType": "uint256",
                    "name": "",
                    "type": "uint256"
                }
            ],
            "stateMutability": "view",
            "type": "function"
        },
        {
            "inputs": [
                {
                    "internalType": "bytes32",
                    "name": "_electionId",
                    "type": "bytes32"
                }
            ],
            "name": "getElectionEndingTime",
            "outputs": [
                {
                    "internalType": "uint256",
                    "name": "",
                    "type": "uint256"
                }
            ],
            "stateMutability": "view",
            "type": "function"
        },
        {
            "inputs": [
                {
                    "components": [
                        {
                            "internalType": "bytes32",
                            "name": "electionId",
                            "type": "bytes32"
                        },
                        {
                            "internalType": "bytes32",
                            "name": "positionId",
                            "type": "bytes32"
                        },
                        {
                            "internalType": "uint8",
                            "name": "position",
                            "type": "uint8"
                        },
                        {
                            "internalType": "bytes32[]",
                            "name": "candidatesId",
                            "type": "bytes32[]"
                        },
                        {
                            "internalType": "uint256",
                            "name": "maxVotes",
                            "type": "uint256"
                        },
                        {
                            "internalType": "uint8",
                            "name": "totalValidators",
                            "type": "uint8"
                        },
                        {
                            "internalType": "address[]",
                            "name": "validatorsAddress",
                            "type": "address[]"
                        }
                    ],
                    "internalType": "struct PositionDetail",
                    "name": "_positionDetail",
                    "type": "tuple"
                }
            ],
            "name": "addPosition",
            "outputs": [],
            "stateMutability": "nonpayable",
            "type": "function"
        },
        {
            "inputs": [
                {
                    "components": [
                        {
                            "internalType": "bytes32",
                            "name": "electionId",
                            "type": "bytes32"
                        },
                        {
                            "internalType": "bytes32",
                            "name": "positionId",
                            "type": "bytes32"
                        },
                        {
                            "internalType": "uint8",
                            "name": "position",
                            "type": "uint8"
                        },
                        {
                            "internalType": "bytes32[]",
                            "name": "candidatesId",
                            "type": "bytes32[]"
                        },
                        {
                            "internalType": "uint256",
                            "name": "maxVotes",
                            "type": "uint256"
                        },
                        {
                            "internalType": "uint8",
                            "name": "totalValidators",
                            "type": "uint8"
                        },
                        {
                            "internalType": "address[]",
                            "name": "validatorsAddress",
                            "type": "address[]"
                        }
                    ],
                    "internalType": "struct PositionDetail",
                    "name": "_positionDetail",
                    "type": "tuple"
                }
            ],
            "name": "updatePositionDetail",
            "outputs": [],
            "stateMutability": "nonpayable",
            "type": "function"
        },
        {
            "inputs": [
                {
                    "internalType": "bytes32",
                    "name": "_positionId",
                    "type": "bytes32"
                }
            ],
            "name": "deletePosition",
            "outputs": [],
            "stateMutability": "nonpayable",
            "type": "function"
        },
        {
            "inputs": [
                {
                    "internalType": "bytes32",
                    "name": "_positionId",
                    "type": "bytes32"
                }
            ],
            "name": "getPositionDetail",
            "outputs": [
                {
                    "components": [
                        {
                            "internalType": "bytes32",
                            "name": "electionId",
                            "type": "bytes32"
                        },
                        {
                            "internalType": "bytes32",
                            "name": "positionId",
                            "type": "bytes32"
                        },
                        {
                            "internalType": "uint8",
                            "name": "position",
                            "type": "uint8"
                        },
                        {
                            "internalType": "bytes32[]",
                            "name": "candidatesId",
                            "type": "bytes32[]"
                        },
                        {
                            "internalType": "uint256",
                            "name": "maxVotes",
                            "type": "uint256"
                        },
                        {
                            "internalType": "uint8",
                            "name": "totalValidators",
                            "type": "uint8"
                        },
                        {
                            "internalType": "address[]",
                            "name": "validatorsAddress",
                            "type": "address[]"
                        }
                    ],
                    "internalType": "struct PositionDetail",
                    "name": "",
                    "type": "tuple"
                }
            ],
            "stateMutability": "view",
            "type": "function"
        },
        {
            "inputs": [
                {
                    "internalType": "bytes32",
                    "name": "_positionId",
                    "type": "bytes32"
                }
            ],
            "name": "getPositionDesignation",
            "outputs": [
                {
                    "internalType": "uint8",
                    "name": "",
                    "type": "uint8"
                }
            ],
            "stateMutability": "view",
            "type": "function"
        },
        {
            "inputs": [
                {
                    "internalType": "bytes32",
                    "name": "_positionId",
                    "type": "bytes32"
                }
            ],
            "name": "getPositionCandidates",
            "outputs": [
                {
                    "internalType": "bytes32[]",
                    "name": "",
                    "type": "bytes32[]"
                }
            ],
            "stateMutability": "view",
            "type": "function"
        },
        {
            "inputs": [
                {
                    "internalType": "bytes32",
                    "name": "_positionId",
                    "type": "bytes32"
                }
            ],
            "name": "getPositionMaxVote",
            "outputs": [
                {
                    "internalType": "uint256",
                    "name": "",
                    "type": "uint256"
                }
            ],
            "stateMutability": "view",
            "type": "function"
        },
        {
            "inputs": [
                {
                    "internalType": "bytes32",
                    "name": "_positionId",
                    "type": "bytes32"
                },
                {
                    "internalType": "bytes32",
                    "name": "_candidateId",
                    "type": "bytes32"
                }
            ],
            "name": "addCandidateInPosition",
            "outputs": [],
            "stateMutability": "nonpayable",
            "type": "function"
        },
        {
            "inputs": [
                {
                    "internalType": "bytes32",
                    "name": "_positionId",
                    "type": "bytes32"
                },
                {
                    "internalType": "bytes32",
                    "name": "_candidateId",
                    "type": "bytes32"
                }
            ],
            "name": "deleteCandidateInPosition",
            "outputs": [],
            "stateMutability": "nonpayable",
            "type": "function"
        },
        {
            "inputs": [
                {
                    "internalType": "bytes32[]",
                    "name": "_candidates",
                    "type": "bytes32[]"
                },
                {
                    "internalType": "bytes32",
                    "name": "_candidate",
                    "type": "bytes32"
                }
            ],
            "name": "deleteCandidateFromList",
            "outputs": [
                {
                    "internalType": "bytes32[]",
                    "name": "",
                    "type": "bytes32[]"
                }
            ],
            "stateMutability": "pure",
            "type": "function"
        },
        {
            "inputs": [
                {
                    "internalType": "bytes32[]",
                    "name": "arr",
                    "type": "bytes32[]"
                }
            ],
            "name": "deleteLastElement",
            "outputs": [
                {
                    "internalType": "bytes32[]",
                    "name": "",
                    "type": "bytes32[]"
                }
            ],
            "stateMutability": "pure",
            "type": "function"
        },
        {
            "inputs": [
                {
                    "internalType": "bytes32",
                    "name": "_positionId",
                    "type": "bytes32"
                },
                {
                    "internalType": "bytes32",
                    "name": "_candidateId",
                    "type": "bytes32"
                }
            ],
            "name": "voteCast",
            "outputs": [],
            "stateMutability": "nonpayable",
            "type": "function"
        },
        {
            "inputs": [
                {
                    "internalType": "bytes32",
                    "name": "_positionId",
                    "type": "bytes32"
                }
            ],
            "name": "validatePositionWinner",
            "outputs": [
                {
                    "internalType": "uint8",
                    "name": "",
                    "type": "uint8"
                }
            ],
            "stateMutability": "nonpayable",
            "type": "function"
        },
        {
            "inputs": [
                {
                    "internalType": "bytes32",
                    "name": "_positionId",
                    "type": "bytes32"
                }
            ],
            "name": "positionWinner",
            "outputs": [
                {
                    "internalType": "bytes32",
                    "name": "",
                    "type": "bytes32"
                }
            ],
            "stateMutability": "nonpayable",
            "type": "function"
        }
    ],
    "bytecode": "0x60806040523480156200001157600080fd5b50604051620031a3380380620031a383398101604081905262000034916200008e565b6000805433600160a060020a031991821617909155600180548216600160a060020a039485161790556002805490911691909216179055620000c6565b8051600160a060020a03811681146200008957600080fd5b919050565b60008060408385031215620000a257600080fd5b620000ad8362000071565b9150620000bd6020840162000071565b90509250929050565b6130cd80620000d66000396000f3fe608060405234801561001057600080fd5b5060043610610239576000357c0100000000000000000000000000000000000000000000000000000000900480636e3d7efe11610142578063a32d8146116100ca578063d0ebdbe711610099578063d0ebdbe714610630578063d500958414610643578063dcf1f8f714610654578063e5b8d9ce14610667578063f8d9592d1461068757600080fd5b8063a32d8146146105aa578063ac3941f7146105bd578063ba60bc4b146105d0578063c0dcd89e146105e357600080fd5b8063803b669211610111578063803b66921461052357806380dc5fca146105435780638662483114610563578063893d20e81461057657806389f0b75d1461058757600080fd5b80636e3d7efe1461046c5780636e9960c31461048f578063704b6c02146104a057806378bedc92146104b357600080fd5b806337f300c4116101c55780634c5a2cc7116101945780634c5a2cc7146103f55780634d1def2c1461040857806352333149146104335780635c8a76871461044657806369444ef31461045957600080fd5b806337f300c4146103405780633b19f1341461037a578063442ad9fc1461038d578063474eddde146103a057600080fd5b806328ff89891161020c57806328ff8989146102c45780632d3d40eb146102d757806330cc1a68146102f757806333a34f931461030a578063361c17721461031d57600080fd5b8063110c43211461023e57806313af40351461027b5780631738f2de14610290578063282fb451146102b1575b600080fd5b61026461024c366004612611565b60009081526007602052604090206002015460ff1690565b60405160ff90911681526020015b60405180910390f35b61028e610289366004612646565b61069a565b005b6102a361029e366004612611565b610742565b604051908152602001610272565b61028e6102bf3660046127c3565b610a7b565b61028e6102d23660046127c3565b610b68565b6102ea6102e536600461284b565b610c4b565b6040516102729190612890565b61028e61030536600461294d565b610d52565b61028e610318366004612a1e565b610de6565b6102a361032b366004612611565b60009081526007602052604090206004015490565b61028e61034e366004612646565b60048054600160a060020a03909216600160a060020a0319928316811790915560038054909216179055565b61028e610388366004612ab3565b610e7a565b61028e61039b366004612a1e565b610f57565b6103d56103ae366004612611565b60066020526000908152604090208054600182015460028301546003909301549192909184565b604080519485526020850193909352918301526060820152608001610272565b61028e61040336600461294d565b611012565b60045461041b90600160a060020a031681565b604051600160a060020a039091168152602001610272565b61028e610441366004612611565b6110a7565b60035461041b90600160a060020a031681565b6102ea610467366004612ad5565b611200565b6102a361047a366004612611565b60009081526006602052604090206002015490565b600154600160a060020a031661041b565b61028e6104ae366004612646565b6112b2565b6104f56104c1366004612611565b600760205260009081526040902080546001820154600283015460048401546005909401549293919260ff91821692911685565b60408051958652602086019490945260ff92831693850193909352606084015216608082015260a001610272565b610536610531366004612611565b611301565b6040516102729190612b45565b610556610551366004612611565b611457565b6040516102729190612be8565b61028e610571366004612ab3565b611527565b600054600160a060020a031661041b565b6102a3610595366004612611565b60009081526006602052604090206003015490565b6102ea6105b8366004612611565b611a6c565b6102646105cb366004612611565b611ad1565b61028e6105de366004612611565b611c5c565b6106136105f1366004612611565b60056020526000908152604090208054600290910154600160a060020a031682565b60408051928352600160a060020a03909116602083015201610272565b61028e61063e366004612646565b611e50565b600254600160a060020a031661041b565b61028e610662366004612ab3565b611f0a565b61067a610675366004612611565b612081565b6040516102729190612c2b565b6102ea610695366004612611565b61212a565b600054600160a060020a031633146106d05760405160e560020a62461bcd0281526004016106c790612c70565b60405180910390fd5b336107205760405160e560020a62461bcd02815260206004820152601f60248201527f4f776e6572206e6f74207365742074686520666972737420616464726573730060448201526064016106c7565b60008054600160a060020a031916600160a060020a0392909216919091179055565b6000600361074f83611ad1565b60ff1610156107c95760405160e560020a62461bcd02815260206004820152602860248201527f546869732066756e6374696f6e206e6565647320332076616c696461746f722060448201527f617070726f76616c00000000000000000000000000000000000000000000000060648201526084016106c7565b6000828152600760209081526040808320815160e08101835281548152600182015481850152600282015460ff168184015260038201805484518187028101870190955280855291949293606086019390929083018282801561084b57602002820191906000526020600020905b815481526020019060010190808311610837575b50505050508152602001600482015481526020016005820160009054906101000a900460ff1660ff1660ff168152602001600682018054806020026020016040519081016040528092919081815260200182805480156108d457602002820191906000526020600020905b8154600160a060020a031681526001909101906020018083116108b6575b505050505081525050905060006108ee8260000151611457565b9050428160600151146109465760405160e560020a62461bcd02815260206004820152601660248201527f456c656374696f6e206d75737420626520656e6465640000000000000000000060448201526064016106c7565b6060820151600080805b8351811015610a43576003548451600091600160a060020a03169063a656234f9087908590811061098357610983612ccd565b60200260200101516040518263ffffffff167c01000000000000000000000000000000000000000000000000000000000281526004016109c591815260200190565b602060405180830381865afa1580156109e2573d6000803e3d6000fd5b505050506040513d601f19601f82011682018060405250810190610a069190612cfc565b905083811115610a3057809350848281518110610a2557610a25612ccd565b602002602001015192505b5080610a3b81612d44565b915050610950565b50604051819088907f096ebbfaadfc828cbe10a18da1798f90f0dcc2f6890e02cdb8f07fccc24cdca390600090a39695505050505050565b8051610a869061218d565b610ad55760405160e560020a62461bcd02815260206004820152601660248201527f556e6976657273697479206e6f7420637265617465640000000000000000000060448201526064016106c7565b80516000908152600560209081526040909120825181558183015180518493610b0592600185019291019061253b565b506040918201516002919091018054600160a060020a031916600160a060020a03909216919091179055517f3a2b683365961a14512258e6b77c3de9190537c1d52953eebbd58433f0d9065090610b5d908390612c2b565b60405180910390a150565b8051610b739061218d565b15610bc35760405160e560020a62461bcd02815260206004820152601860248201527f556e697665727369747920616c7265616479206578697374000000000000000060448201526064016106c7565b80516000908152600560209081526040909120825181558183015180518493610bf392600185019291019061253b565b506040918201516002919091018054600160a060020a031916600160a060020a03909216919091179055517f6a5180e8ce6e121a6df9bb1c1191bc4483c672391965d6ede01ec3645b173d2290610b5d908390612c2b565b60606000610c5984846121b2565b905083518103610cd45760405160e560020a62461bcd02815260206004820152602160248201527f43616e646964617465206e6f7420666f756e6420696e206f776e6572206c697360448201527f740000000000000000000000000000000000000000000000000000000000000060648201526084016106c7565b805b60018551610ce49190612d5d565b811015610d3e5784610cf7826001612d70565b81518110610d0757610d07612ccd565b6020026020010151858281518110610d2157610d21612ccd565b602090810291909101015280610d3681612d44565b915050610cd6565b50610d4884611200565b9150505b92915050565b610d5f8160200151612201565b610dae5760405160e560020a62461bcd02815260206004820152601260248201527f506f736974696f6e206e6f74206578697374000000000000000000000000000060448201526064016106c7565b610db781612336565b7f2f35f41581d279adda031a647fac20151f917ab0b2334500bc6aa16718f1872081604051610b5d9190612b45565b610df381602001516123c9565b610e425760405160e560020a62461bcd02815260206004820152601260248201527f456c656374696f6e206e6f74206578697374000000000000000000000000000060448201526064016106c7565b610e4b81612472565b7fc45334805e8a6bf3ca49ee6ebdb3d75970ffdb45d242484eefc3ca796ccee00881604051610b5d9190612be8565b60008281526007602052604081206001810154909103610edf5760405160e560020a62461bcd02815260206004820152601260248201527f506f736974696f6e206e6f7420666f756e64000000000000000000000000000060448201526064016106c7565b610f3b81600301805480602002602001604051908101604052809291908181526020018280548015610f3057602002820191906000526020600020905b815481526020019060010190808311610f1c575b505050505083610c4b565b8051610f5191600384019160209091019061253b565b50505050565b610f6481602001516123c9565b15610fda5760405160e560020a62461bcd02815260206004820152602660248201527f456c656374696f6e20616c72656164792063726561746564207769746820676960448201527f76656e206964000000000000000000000000000000000000000000000000000060648201526084016106c7565b610fe381612472565b7f252464e9ebec9134e1293e782aadd9d9c7f26d76a071f39c2ceabd89cfb2b9e881604051610b5d9190612be8565b61101f8160200151612201565b1561106f5760405160e560020a62461bcd02815260206004820152601660248201527f506f736974696f6e20616c72656164792065786973740000000000000000000060448201526064016106c7565b61107881612336565b7fc7f947a48007095bc1202b309ca5373e4449d22abf8dc3c7bc9aaed7eb33884e81604051610b5d9190612b45565b6000818152600660209081526040808320815160a081018352815481526001820154818501526002820154818401526003820154606082015260048201805484518187028101870190955280855291949293608086019390929083018282801561113057602002820191906000526020600020905b81548152602001906001019080831161111c575b505050505081525050905080602001516000036111925760405160e560020a62461bcd02815260206004820152601760248201527f456c656374696f6e20646f6573206e6f7420657869737400000000000000000060448201526064016106c7565b6000828152600660205260408120818155600181018290556002810182905560038101829055906111c66004830182612586565b50506040518281527f074f41f314a78bfcdcd60098f38e904060813dbdb98ad93737f59ec6ec6b9984906020015b60405180910390a15050565b60606000600183516112129190612d5d565b67ffffffffffffffff81111561122a5761122a612668565b604051908082528060200260200182016040528015611253578160200160208202803683370190505b50905060005b81518110156112ab5783818151811061127457611274612ccd565b602002602001015182828151811061128e5761128e612ccd565b6020908102919091010152806112a381612d44565b915050611259565b5092915050565b600054600160a060020a031633146112df5760405160e560020a62461bcd0281526004016106c790612c70565b60018054600160a060020a031916600160a060020a0392909216919091179055565b6040805160e08101825260008082526020820181905291810182905260608082018190526080820183905260a082019290925260c0810191909152600082815260076020908152604091829020825160e08101845281548152600182015481840152600282015460ff168185015260038201805485518186028101860190965280865291949293606086019392908301828280156113be57602002820191906000526020600020905b8154815260200190600101908083116113aa575b50505050508152602001600482015481526020016005820160009054906101000a900460ff1660ff1660ff1681526020016006820180548060200260200160405190810160405280929190818152602001828054801561144757602002820191906000526020600020905b8154600160a060020a03168152600190910190602001808311611429575b5050505050815250509050919050565b61148f6040518060a0016040528060008019168152602001600080191681526020016000815260200160008152602001606081525090565b600082815260066020908152604091829020825160a0810184528154815260018201548184015260028201548185015260038201546060820152600482018054855181860281018601909652808652919492936080860193929083018282801561144757602002820191906000526020600020905b815481526020019060010190808311611504575050505050815250509050919050565b6003546040517fe6fae74f000000000000000000000000000000000000000000000000000000008152336004820152600091600160a060020a03169063e6fae74f90602401600060405180830381865afa158015611589573d6000803e3d6000fd5b505050506040513d6000823e601f3d908101601f191682016040526115b19190810190612d83565b6003546040517f331d938c00000000000000000000000000000000000000000000000000000000815260048101859052919250600091600160a060020a039091169063331d938c90602401608060405180830381865afa158015611619573d6000803e3d6000fd5b505050506040513d601f19601f8201168201806040525081019061163d9190612e96565b9050600061164a85611301565b9050600083604001515160016116609190612d70565b67ffffffffffffffff81111561167857611678612668565b6040519080825280602002602001820160405280156116c357816020015b60408051606081018252600080825260208083018290529282015282526000199092019101816116965790505b50905060005b8460400151518110156118285786856040015182815181106116ed576116ed612ccd565b602002602001015160000151036117495760405160e560020a62461bcd02815260206004820152601260248201527f566f746520616c7265616479206578697374000000000000000000000000000060448201526064016106c7565b8460400151818151811061175f5761175f612ccd565b60200260200101516000015182828151811061177d5761177d612ccd565b60209081029190910101515260408501518051829081106117a0576117a0612ccd565b6020026020010151600001518282815181106117be576117be612ccd565b60200260200101516020018181525050846040015181815181106117e4576117e4612ccd565b60200260200101516040015182828151811061180257611802612ccd565b60209081029190910101519015156040909101528061182081612d44565b9150506116c9565b5085818560400151518151811061184157611841612ccd565b6020908102919091018101519190915260408051918201879052429082015244606082015260800160405160208183030381529060405280519060200120818560400151518151811061189657611896612ccd565b60200260200101516020018181525050600181856040015151815181106118bf576118bf612ccd565b602002602001015160400190151590811515815250506001836060018181516118e89190612d70565b90525060808201805160019190611900908390612d70565b905250604080850182905260035490517f4c2ab3df000000000000000000000000000000000000000000000000000000008152600160a060020a0390911690634c2ab3df90611953908790600401612f04565b600060405180830381600087803b15801561196d57600080fd5b505af1158015611981573d6000803e3d6000fd5b5050600354604080517f0b3b387100000000000000000000000000000000000000000000000000000000815287516004820152602088015160248201529087015160ff16604482015260608701516064820152600160a060020a039091169250630b3b38719150608401600060405180830381600087803b158015611a0557600080fd5b505af1158015611a19573d6000803e3d6000fd5b50505050611a2682610d52565b602080850151604080519182529181018890527f98feb77d0a18cb15f50d444eb78ea1c0e7461c4c7c44c9df2a863f4af4ade56a910160405180910390a1505050505050565b600081815260066020908152604091829020600401805483518184028101840190945280845260609392830182828015611ac557602002820191906000526020600020905b815481526020019060010190808311611ab1575b50505050509050919050565b6000818152600760205260408120600581018054600191908490611af990849060ff16612f83565b82546101009290920a60ff818102199093169183160217909155600683018054600181810183556000928352602092839020909101805433600160a060020a03199091161790556040805160e081018252865481529186015482840152600286015490931681840152600385018054845181850281018501909552808552611c4f955091938693606086019391929190830182828015611bb857602002820191906000526020600020905b815481526020019060010190808311611ba4575b50505050508152602001600482015481526020016005820160009054906101000a900460ff1660ff1660ff16815260200160068201805480602002602001604051908101604052809291908181526020018280548015611c4157602002820191906000526020600020905b8154600160a060020a03168152600190910190602001808311611c23575b505050505081525050610d52565b6005015460ff1692915050565b6000818152600760209081526040808320815160e08101835281548152600182015481850152600282015460ff1681840152600382018054845181870281018701909552808552919492936060860193909290830182828015611cde57602002820191906000526020600020905b815481526020019060010190808311611cca575b50505050508152602001600482015481526020016005820160009054906101000a900460ff1660ff1660ff16815260200160068201805480602002602001604051908101604052809291908181526020018280548015611d6757602002820191906000526020600020905b8154600160a060020a03168152600190910190602001808311611d49575b50505050508152505090508060200151600003611dc95760405160e560020a62461bcd02815260206004820152601760248201527f506f736974696f6e20646f6573206e6f7420657869737400000000000000000060448201526064016106c7565b60008281526007602052604081208181556001810182905560028101805460ff1916905590611dfb6003830182612586565b60006004830181905560058301805460ff19169055611e1e906006840190612586565b50506040518281527f181182e3a2c33576a9aa68506ba31eac622e3a250d3207175ff1e70dc4aed4e8906020016111f4565b600054600160a060020a0316331480611e735750600154600160a060020a031633145b611ee85760405160e560020a62461bcd02815260206004820152602c60248201527f4f6e6c79206f776e657220616e642061646d696e2063616e20706572666f726d60448201527f207468697320616374696f6e000000000000000000000000000000000000000060648201526084016106c7565b60028054600160a060020a031916600160a060020a0392909216919091179055565b60008281526007602052604081206001810154909103611f6f5760405160e560020a62461bcd02815260206004820152601260248201527f506f736974696f6e206e6f7420666f756e64000000000000000000000000000060448201526064016106c7565b60005b600382015481101561202757816003018181548110611f9357611f93612ccd565b906000526020600020015483036120155760405160e560020a62461bcd02815260206004820152602b60248201527f43616e64696461746520616c72656164792070726573656e7420666f7220746860448201527f697320706f736974696f6e00000000000000000000000000000000000000000060648201526084016106c7565b8061201f81612d44565b915050611f72565b5060038101805460018101825560009182526020909120018290556040517f87cd37ca22e33363e56008b0b6ee6335433514adcdeda9fadc98a99b154305e090612074908390859061300f565b60405180910390a1505050565b604080516060808201835260008083526020808401839052838501829052858252600581529084902084519283018552805483526001810180548651818502810185019097528087529495939491938584019390929083018282801561210657602002820191906000526020600020905b8154815260200190600101908083116120f2575b505050918352505060029190910154600160a060020a031660209091015292915050565b600081815260076020908152604091829020600301805483518184028101840190945280845260609392830182828015611ac55760200282019190600052602060002090815481526020019060010190808311611ab15750505050509050919050565b60008181526005602052604081205481036121aa57506000919050565b506001919050565b6000805b83518110156121f857828482815181106121d2576121d2612ccd565b6020026020010151036121e6579050610d4c565b806121f081612d44565b9150506121b6565b50509051919050565b6000818152600760209081526040808320815160e08101835281548152600182015481850152600282015460ff16818401526003820180548451818702810187019095528085528695929460608601939092919083018282801561228457602002820191906000526020600020905b815481526020019060010190808311612270575b50505050508152602001600482015481526020016005820160009054906101000a900460ff1660ff1660ff1681526020016006820180548060200260200160405190810160405280929190818152602001828054801561230d57602002820191906000526020600020905b8154600160a060020a031681526001909101906020018083116122ef575b5050505050815250509050806020015160000361232d5750600092915050565b50600192915050565b60208181018051600090815260078352604090819020845181559151600183015583015160028201805460ff191660ff90921691909117905560608301518051849361238992600385019291019061253b565b506080820151600482015560a082015160058201805460ff191660ff90921691909117905560c08201518051610f519160068401916020909101906125a7565b6000818152600660209081526040808320815160a08101835281548152600182015481850152600282015481840152600382015460608201526004820180548451818702810187019095528085528695929460808601939092919083018282801561230d57602002820191906000526020600020905b81548152602001906001019080831161243f575050505050815250509050806020015160000361232d5750600092915050565b6040518060a00160405280826000015181526020018260200151815260200182604001518152602001826060015162093a806124ae9190612d70565b815260808084015160209283015283820151600090815260068352604090819020845181558484015160018201559084015160028201556060840151600382015590830151805191926125099260048501929091019061253b565b505081516000908152600560209081526040822093810151600194850180549586018155835291209092019190915550565b828054828255906000526020600020908101928215612576579160200282015b8281111561257657825182559160200191906001019061255b565b506125829291506125fc565b5090565b50805460008255906000526020600020908101906125a491906125fc565b50565b828054828255906000526020600020908101928215612576579160200282015b828111156125765782518254600160a060020a031916600160a060020a039091161782556020909201916001909101906125c7565b5b8082111561258257600081556001016125fd565b60006020828403121561262357600080fd5b5035919050565b8035600160a060020a038116811461264157600080fd5b919050565b60006020828403121561265857600080fd5b6126618261262a565b9392505050565b7f4e487b7100000000000000000000000000000000000000000000000000000000600052604160045260246000fd5b6040516060810167ffffffffffffffff811182821017156126ba576126ba612668565b60405290565b60405160e0810167ffffffffffffffff811182821017156126ba576126ba612668565b60405160a0810167ffffffffffffffff811182821017156126ba576126ba612668565b604051601f8201601f1916810167ffffffffffffffff8111828210171561272f5761272f612668565b604052919050565b600067ffffffffffffffff82111561275157612751612668565b5060209081020190565b600082601f83011261276c57600080fd5b8135602061278161277c83612737565b612706565b8281529181028401810191818101908684111561279d57600080fd5b8286015b848110156127b857803583529183019183016127a1565b509695505050505050565b6000602082840312156127d557600080fd5b813567ffffffffffffffff808211156127ed57600080fd5b908301906060828603121561280157600080fd5b612809612697565b8235815260208301358281111561281f57600080fd5b61282b8782860161275b565b60208301525061283d6040840161262a565b604082015295945050505050565b6000806040838503121561285e57600080fd5b823567ffffffffffffffff81111561287557600080fd5b6128818582860161275b565b95602094909401359450505050565b6020808252825182820181905260009190848201906040850190845b818110156128c8578351835292840192918401916001016128ac565b50909695505050505050565b60ff811681146125a457600080fd5b8035612641816128d4565b600082601f8301126128ff57600080fd5b8135602061290f61277c83612737565b8281529181028401810191818101908684111561292b57600080fd5b8286015b848110156127b8576129408161262a565b835291830191830161292f565b60006020828403121561295f57600080fd5b813567ffffffffffffffff8082111561297757600080fd5b9083019060e0828603121561298b57600080fd5b6129936126c0565b82358152602083013560208201526129ad604084016128e3565b60408201526060830135828111156129c457600080fd5b6129d08782860161275b565b606083015250608083013560808201526129ec60a084016128e3565b60a082015260c083013582811115612a0357600080fd5b612a0f878286016128ee565b60c08301525095945050505050565b600060208284031215612a3057600080fd5b813567ffffffffffffffff80821115612a4857600080fd5b9083019060a08286031215612a5c57600080fd5b612a646126e3565b82358152602083013560208201526040830135604082015260608301356060820152608083013582811115612a9857600080fd5b612aa48782860161275b565b60808301525095945050505050565b60008060408385031215612ac657600080fd5b50508035926020909101359150565b600060208284031215612ae757600080fd5b813567ffffffffffffffff811115612afe57600080fd5b610d488482850161275b565b600081518084526020808501945080840160005b83811015612b3a57815187529582019590820190600101612b1e565b509495945050505050565b6000602080835283518184015280840151604084015260ff6040850151166060840152606084015160e06080850152612b82610100850182612b0a565b608086015160a08681019190915286015160ff1660c080870191909152860151858203601f190160e0870152805180835290840192506000918401905b808310156127b8578351600160a060020a03168252928401926001929092019190840190612bbf565b60208152815160208201526020820151604082015260408201516060820152606082015160808201526000608083015160a080840152610d4860c0840182612b0a565b60208152815160208201526000602083015160606040840152612c516080840182612b0a565b9050600160a060020a0360408501511660608401528091505092915050565b60208082526022908201527f4f6e6c79206f776e65722063616e20706572666f726d2074686973206163746960408201527f6f6e000000000000000000000000000000000000000000000000000000000000606082015260800190565b7f4e487b7100000000000000000000000000000000000000000000000000000000600052603260045260246000fd5b600060208284031215612d0e57600080fd5b5051919050565b7f4e487b7100000000000000000000000000000000000000000000000000000000600052601160045260246000fd5b600060018201612d5657612d56612d15565b5060010190565b81810381811115610d4c57610d4c612d15565b80820180821115610d4c57610d4c612d15565b60006020808385031215612d9657600080fd5b825167ffffffffffffffff80821115612dae57600080fd5b81850191506060808388031215612dc457600080fd5b612dcc612697565b83518152848401518582015260408085015184811115612deb57600080fd5b80860195505088601f860112612e0057600080fd5b84519350612e1061277c85612737565b8481529383028501860193868101908a861115612e2c57600080fd5b958701955b85871015612e835784878c031215612e495760008081fd5b612e51612697565b875181528888015189820152838801518015158114612e705760008081fd5b8185015282529584019590870190612e31565b9183019190915250979650505050505050565b600060808284031215612ea857600080fd5b6040516080810181811067ffffffffffffffff82111715612ecb57612ecb612668565b806040525082518152602083015160208201526040830151612eec816128d4565b60408201526060928301519281019290925250919050565b600060208083526080830184518285015281850151604081818701528087015191506060808188015283835180865260a0890191508685019550600094505b80851015612f76578551805183528781015188840152840151151584830152948601946001949094019390820190612f43565b5098975050505050505050565b60ff8181168382160190811115610d4c57610d4c612d15565b6000815480845260208085019450836000528060002060005b83811015612b3a57815487529582019560019182019101612fb5565b6000815480845260208085019450836000528060002060005b83811015612b3a578154600160a060020a031687529582019560019182019101612fea565b604081528254604082015260018301546060820152600060ff60028501541661303d608084018260ff169052565b5060e060a0830152613056610120830160038601612f9c565b600485015460c0840152600585015460ff1660e0840152603f19838203016101008401526130878160068701612fd1565b915050826020830152939250505056fea26469706673582212209a44f54985a8eab78efb04646267605d0bc297b99241918c6c98002e28c138cc64736f6c63430008100033",
    "immutableReferences": {},
    "source": "/**\n@author:- Anurag\n@email:- anurag@c3ihub.iitk.ac.in\n\n*/\n\n// SPDX-License-Identifier: UNLICENSED\npragma solidity ^0.8.16;\n\nimport \"./DataTypes.sol\";\nimport \"./VotingCommon.sol\";\nimport \"./UserManager.sol\";\n\ncontract VotingStorage is VotingCommon {\n    // Data layer\n    UserManager public userManager;\n    address public userManagerAddress;\n\n    function loaduserManager(address _userManagerAddress) public {\n        userManagerAddress = _userManagerAddress;\n        userManager = UserManager(userManagerAddress);\n    }\n\n    // set the initial functionality of the contract\n    constructor(\n        address _admin,\n        address _manager\n    ) VotingCommon(_admin, _manager) {}\n\n    //mapping to store univeristy data on university id\n    mapping(bytes32 => University) public universityMap;\n    // mapping to store election data on election id\n    mapping(bytes32 => Election) public electionMap; // id => Election\n    // mapping to store positions details\n    mapping(bytes32 => PositionDetail) public positionMap; // id => PositionDetail\n\n    //Event emitted after the university added\n    event UniversityAdded(University university);\n    //Event emitted after the university updated\n    event UniversityUpdated(University university);\n\n    // Event emitted after the election added\n    event ElectionAdded(Election election);\n    // Event emitted after the election updated\n    event ElectionUpdated(Election election);\n    // Event emitted after the election deleted\n    event ElectionDeleted(bytes32 electionId);\n\n    // Event emitted after the position added\n    event PositionAdded(PositionDetail position);\n    // Event emitted after the position updated\n    event PositionUpdated(PositionDetail position);\n    // Event emitted after the position deleted\n    event PositionDeleted(bytes32 PositionId);\n\n    // Event emitted after the position winner\n    event PositionWinner(bytes32 indexed positionId, bytes32 indexed winnerId);\n\n    // Event emitted after candidate added on the given position\n    event CandidateAddedInPosition(\n        PositionDetail position,\n        bytes32 candidateId\n    );\n    // Event emitted after candidate added on the given position\n    event CandidateUpdatedInPosition(\n        PositionDetail position,\n        bytes32 candidateId\n    );\n\n    // Event emitted after the vote cast\n    event VoteCast(bytes32 voterId, bytes32 positionId);\n\n    /*\n  Function for add university\n  @param detail object of the university\n  */\n    function addUniversity(University memory _university) public {\n        if(isUniversityCreated(_university.universityId)){\n            revert(\"University already exist\");\n        }\n        universityMap[_university.universityId] = _university;\n        emit UniversityAdded(_university);\n    }\n\n    /*\n  Function for update university\n  @param detail object of the university\n  */\n    function updateUniversity(University memory _university) public {\n        if(!isUniversityCreated(_university.universityId)){\n            revert(\"University not created\");\n        }\n        universityMap[_university.universityId] = _university;\n        emit UniversityUpdated(_university);\n    }\n\n    /*\n  Function to check university id already exist or not\n  @param bytes32 universityId\n  */\n    function isUniversityCreated(bytes32 _universityId) internal view returns(bool){\n        if(universityMap[_universityId].universityId == \"\"){\n            return false;\n        }\n        return true;\n    }\n\n\n    /*\n  Function to get university detail\n  @param bytes32 universityId\n  */ \n    function getUniversityDetail(bytes32 _universityId) public view returns (University memory) {\n        return universityMap[_universityId];\n    }\n\n    \n\n    /*\n  Function for add election\n  @param detail object of the election\n  */\n    function addElection(Election memory _election) public{\n        if (isElectionCreated(_election.electionId)) {\n            revert(\"Election already created with given id\");\n        }\n        saveElectionInMap(_election);\n        emit ElectionAdded(_election);\n    }\n\n    /*\n  Function for update election\n  @param detail object of the election\n  */\n    function updateElection(Election memory _election) public {\n        if (!isElectionCreated(_election.electionId)) {\n            revert(\"Election not exist\");\n        }\n        saveElectionInMap(_election);\n        emit ElectionUpdated(_election);\n    }\n\n    /*\n     * @dev Function to delete a election\n     * @param electionId 12 bit uint id of the election\n     */\n    function deleteElection(bytes32 _electionId) public {\n        Election memory election = electionMap[_electionId];\n        if (election.electionId == \"\") {\n            revert(\"Election does not exist\");\n        }\n        // Delete the Election in the mapping\n        delete (electionMap[_electionId]);\n\n        // Emit the ElectionDeleted event\n        emit ElectionDeleted(_electionId);\n    }\n\n    /*\n  Function for stored election data in mapping internally\n  @param detail object of the election\n  */\n    function saveElectionInMap(Election memory _election) internal {\n        electionMap[_election.electionId] = Election(\n            _election.universityId,\n            _election.electionId,\n            _election.startingTime,\n            _election.endingTime + 1 weeks,\n            _election.positionsDetailsId\n        );\n        universityMap[_election.universityId].electionIds.push(_election.electionId);\n    }\n\n    /*\n  Function for check election already exist or not\n  @param detail object of the election\n  */\n    function isElectionCreated(\n        bytes32 _electionId\n    ) internal view returns (bool) {\n        Election memory election = electionMap[_electionId];\n        if (election.electionId == \"\") {\n            return false;\n        }\n        return true;\n    }\n\n    /*\n  Function to get election detail\n  @param election id\n  */\n    function getElectionDetail(\n        bytes32 _electionId\n    ) public view returns (Election memory) {\n        return electionMap[_electionId];\n    }\n\n    /*\n  Function to get election position detail\n  @param election id\n  */\n    function getElectionPositionDetail(\n        bytes32 _electionId\n    ) public view returns (bytes32[] memory) {\n        return electionMap[_electionId].positionsDetailsId;\n    }\n\n    /*\n  Function to get election starting time\n  @param election id\n  */\n    function getElectionStartingTime(\n        bytes32 _electionId\n    ) public view returns (uint256) {\n        return electionMap[_electionId].startingTime;\n    }\n\n    /*\n  Function to get election ending time\n  @param election id\n  */\n    function getElectionEndingTime(\n        bytes32 _electionId\n    ) public view returns (uint256) {\n        return electionMap[_electionId].endingTime;\n    }\n\n    /*\n    POSITION DETAIL OPERATIONS\n  */\n\n    /*\n  Function for add position\n  @param detail object of the position\n  */\n    function addPosition(\n        PositionDetail memory _positionDetail\n    ) public {\n        // check position id already not present\n        if (isPositionCreated(_positionDetail.positionId)) {\n            revert(\"Position already exist\");\n        }\n        // save position detail into mapping\n        savePositionDetailInMap(_positionDetail);\n        // Emitted the event\n        emit PositionAdded(_positionDetail);\n    }\n\n    /*\n  Function for update position detail\n  @param detail object of the position\n  */\n    function updatePositionDetail(\n        PositionDetail memory _positionDetail\n    ) public {\n        // check position id already exist\n        if (!isPositionCreated(_positionDetail.positionId)) {\n            revert(\"Position not exist\");\n        }\n        // save updated position detail in mapping\n        savePositionDetailInMap(_positionDetail);\n        // Emitted the event\n        emit PositionUpdated(_positionDetail);\n    }\n\n    function deletePosition(bytes32 _positionId) public {\n        PositionDetail memory positionDetail = positionMap[_positionId];\n        // check position id already exist\n        if (positionDetail.positionId == \"\") {\n            revert(\"Position does not exist\");\n        }\n        // save delete position detail in mapping\n        delete (positionMap[_positionId]);\n        // Emitted the event\n        emit PositionDeleted(_positionId);\n    }\n\n    /*\n  Function for store position detail in mapping internally\n  @param detail object of the position\n  */\n    function savePositionDetailInMap(\n        PositionDetail memory _positionDetail\n    ) internal {\n        positionMap[_positionDetail.positionId] = _positionDetail;\n    }\n\n    /*\n  Function for check position exist or not\n  @param bytes32 position id\n  */\n    function isPositionCreated(\n        bytes32 _positionId\n    ) internal view returns (bool) {\n        PositionDetail memory position = positionMap[_positionId];\n        if (position.positionId == \"\") {\n            return false;\n        }\n        return true;\n    }\n\n    /*\n  Function for get positin detail\n  @param bytes32 position id\n  */\n    function getPositionDetail(\n        bytes32 _positionId\n    ) public view returns (PositionDetail memory) {\n        return positionMap[_positionId];\n    }\n\n    /*\n  Function for get position designation\n  @param bytes32 position id\n  */\n    function getPositionDesignation(\n        bytes32 _positionId\n    ) public view returns (uint8) {\n        return positionMap[_positionId].position;\n    }\n\n    /*\n  Function for get positin candidates\n  @param bytes32 position id\n  */\n    function getPositionCandidates(\n        bytes32 _positionId\n    ) public view returns (bytes32[] memory) {\n        return positionMap[_positionId].candidatesId;\n    }\n\n    /*\n  Function for get positin max vote count\n  @param bytes32 position id\n  */\n    function getPositionMaxVote(\n        bytes32 _positionId\n    ) public view returns (uint256) {\n        return positionMap[_positionId].maxVotes;\n    }\n\n    /*\n      OTHER OPERATIONS\n  */\n\n    /*\n  Function to add candidates in position id\n  @param bytes32 position id\n  @param bytes32 candidate id\n  */\n    function addCandidateInPosition(\n        bytes32 _positionId,\n        bytes32 _candidateId\n    ) public {\n        PositionDetail storage position = positionMap[_positionId];\n        // Check if the position exists\n        require(position.positionId != \"\", \"Position not found\");\n        // Check if the candidate exists\n        for (uint256 i = 0; i < position.candidatesId.length; i++) {\n            if (_candidateId == position.candidatesId[i]) {\n                revert(\"Candidate already present for this position\");\n            }\n        }\n        // Store candidate in the position struct\n        position.candidatesId.push(_candidateId);\n        // Emit the event\n        emit CandidateAddedInPosition(position, _candidateId);\n    }\n\n    /*\n  Function to delete candidates in position id\n  @param bytes32 position id\n  @param bytes32 candidate id\n  */\n    function deleteCandidateInPosition(\n        bytes32 _positionId,\n        bytes32 _candidateId\n    ) public {\n        PositionDetail storage position = positionMap[_positionId];\n        // Check if the position exists\n        require(position.positionId != \"\", \"Position not found\");\n        position.candidatesId = deleteCandidateFromList(\n            position.candidatesId,\n            _candidateId\n        );\n    }\n\n    function deleteCandidateFromList(\n        bytes32[] memory _candidates,\n        bytes32 _candidate\n    ) public pure returns (bytes32[] memory) {\n        uint256 currentIndex = findIndex(_candidates, _candidate);\n        if (currentIndex == _candidates.length) {\n            revert(\"Candidate not found in owner list\");\n        }\n        for (uint256 i = currentIndex; i < _candidates.length - 1; i++) {\n            _candidates[i] = _candidates[i + 1];\n        }\n        return deleteLastElement(_candidates);\n    }\n\n    function findIndex(\n        bytes32[] memory arr,\n        bytes32 element\n    ) internal pure returns (uint256) {\n        for (uint256 i = 0; i < arr.length; i++) {\n            if (arr[i] == element) {\n                return i;\n            }\n        }\n        return arr.length;\n    }\n\n    function deleteLastElement(\n        bytes32[] memory arr\n    ) public pure returns (bytes32[] memory) {\n        bytes32[] memory tempArray = new bytes32[](arr.length - 1);\n        for (uint256 i = 0; i < tempArray.length; i++) {\n            tempArray[i] = arr[i];\n        }\n        return tempArray;\n    }\n\n    /*\n  Function to add vote cast\n  @param uint256 currentIndex value\n  @param bytes32 position id\n  @param bytes32 candidate id\n  */\n    function voteCast(bytes32 _positionId, bytes32 _candidateId) public {\n        Voter memory voter = userManager.getVoterDetailByAddress(msg.sender);\n        Candidate memory candidate = userManager.getCandidateDetail(_candidateId);\n        PositionDetail memory position = getPositionDetail(_positionId);\n        PositionVote[] memory positionVote = new PositionVote[](voter.positionVote.length + 1);\n\n        for(uint i=0; i<voter.positionVote.length; i++){\n            if(voter.positionVote[i].positionId == _positionId){\n                revert(\"Vote already exist\");\n            }\n            positionVote[i].positionId = voter.positionVote[i].positionId;\n            positionVote[i].candidateId = voter.positionVote[i].positionId;\n            positionVote[i].isVoted = voter.positionVote[i].isVoted;\n        }\n\n            positionVote[voter.positionVote.length].positionId = _positionId;\n            positionVote[voter.positionVote.length].candidateId = keccak256(\n                    abi.encodePacked(\n                        _candidateId,\n                        block.timestamp,\n                        block.difficulty\n                    )\n                );\n            positionVote[voter.positionVote.length].isVoted = true;\n        \n        candidate.voteCount += 1;\n        position.maxVotes += 1;\n\n        voter.positionVote = positionVote;\n        userManager.updateVoter(voter);\n        userManager.updateCandidate(candidate);\n        updatePositionDetail(position);\n        emit VoteCast(voter.voterId, _positionId);\n    }\n\n    function validatePositionWinner(\n        bytes32 _positionId\n    ) public returns (uint8) {\n        PositionDetail storage position = positionMap[_positionId];\n        position.totalValidators += 1;\n        position.validatorsAddress.push(msg.sender);\n        updatePositionDetail(position);\n        return position.totalValidators;\n    }\n\n    /*\n  Function for winner or result\n  @param bytes32 position id\n  */\n    function positionWinner(bytes32 _positionId) public returns (bytes32) {\n        require(\n            validatePositionWinner(_positionId) >= 3,\n            \"This function needs 3 validator approval\"\n        );\n        PositionDetail memory position = positionMap[_positionId];\n        Election memory election = getElectionDetail(position.electionId);\n        require(election.endingTime == block.timestamp, \"Election must be ended\");\n        bytes32[] memory candidates = position.candidatesId;\n        uint256 totalVotes = 0;\n        bytes32 winnerCandidateId;\n        for (uint256 j = 0; j < candidates.length; j++) {\n            uint256 candidateVoteCount = userManager.getCandidateVotes(candidates[j]);\n            if (candidateVoteCount > totalVotes) {\n                totalVotes = candidateVoteCount;\n                winnerCandidateId = candidates[j];\n                }\n            }\n        emit PositionWinner(_positionId, winnerCandidateId);\n        return winnerCandidateId;\n    }\n}\n",
    "sourcePath": "/home/anurag/Documents/iitk/c3i/evoting/evoting-contract/smart_contract/contracts/VotingStorage.sol",
    "compiler": {
        "name": "solc",
        "version": "0.8.16+commit.07a7930e.Emscripten.clang"
    },
    "schemaVersion": "3.4.14",
    "updatedAt": "2023-09-18T15:36:00.249Z",
    "devdoc": {
        "kind": "dev",
        "methods": {},
        "version": 1
    },
    "userdoc": {
        "kind": "user",
        "methods": {},
        "version": 1
    }
}